{
  "contractName": "Chess",
  "abi": [
    {
      "inputs": [],
      "stateMutability": "nonpayable",
      "type": "constructor"
    },
    {
      "inputs": [
        {
          "internalType": "uint256",
          "name": "",
          "type": "uint256"
        }
      ],
      "name": "BetInfo",
      "outputs": [
        {
          "internalType": "uint256",
          "name": "amountPlayer1",
          "type": "uint256"
        },
        {
          "internalType": "uint256",
          "name": "amountPlayer2",
          "type": "uint256"
        }
      ],
      "stateMutability": "view",
      "type": "function"
    },
    {
      "inputs": [
        {
          "internalType": "uint256",
          "name": "",
          "type": "uint256"
        }
      ],
      "name": "GameInfo",
      "outputs": [
        {
          "internalType": "address",
          "name": "player1",
          "type": "address"
        },
        {
          "internalType": "address",
          "name": "player2",
          "type": "address"
        },
        {
          "internalType": "address payable",
          "name": "winner",
          "type": "address"
        },
        {
          "internalType": "uint256",
          "name": "amountBet",
          "type": "uint256"
        }
      ],
      "stateMutability": "view",
      "type": "function"
    },
    {
      "inputs": [
        {
          "internalType": "address",
          "name": "",
          "type": "address"
        },
        {
          "internalType": "uint256",
          "name": "",
          "type": "uint256"
        }
      ],
      "name": "GamesPlayed",
      "outputs": [
        {
          "internalType": "uint256",
          "name": "",
          "type": "uint256"
        }
      ],
      "stateMutability": "view",
      "type": "function"
    },
    {
      "inputs": [],
      "name": "gameID",
      "outputs": [
        {
          "internalType": "uint256",
          "name": "",
          "type": "uint256"
        }
      ],
      "stateMutability": "view",
      "type": "function"
    },
    {
      "inputs": [],
      "name": "owner",
      "outputs": [
        {
          "internalType": "address",
          "name": "",
          "type": "address"
        }
      ],
      "stateMutability": "view",
      "type": "function"
    },
    {
      "inputs": [],
      "name": "newGame",
      "outputs": [],
      "stateMutability": "payable",
      "type": "function"
    },
    {
      "inputs": [
        {
          "internalType": "address",
          "name": "player",
          "type": "address"
        }
      ],
      "name": "getGameID",
      "outputs": [
        {
          "internalType": "uint256",
          "name": "",
          "type": "uint256"
        }
      ],
      "stateMutability": "view",
      "type": "function"
    },
    {
      "inputs": [
        {
          "internalType": "uint256",
          "name": "game",
          "type": "uint256"
        }
      ],
      "name": "joinGame",
      "outputs": [],
      "stateMutability": "payable",
      "type": "function"
    },
    {
      "inputs": [
        {
          "internalType": "uint256",
          "name": "game",
          "type": "uint256"
        },
        {
          "internalType": "address",
          "name": "winner",
          "type": "address"
        }
      ],
      "name": "declareWinner",
      "outputs": [],
      "stateMutability": "nonpayable",
      "type": "function"
    },
    {
      "inputs": [
        {
          "internalType": "address",
          "name": "user",
          "type": "address"
        }
      ],
      "name": "getGames",
      "outputs": [
        {
          "components": [
            {
              "internalType": "address",
              "name": "player1",
              "type": "address"
            },
            {
              "internalType": "address",
              "name": "player2",
              "type": "address"
            },
            {
              "internalType": "address payable",
              "name": "winner",
              "type": "address"
            },
            {
              "internalType": "uint256",
              "name": "amountBet",
              "type": "uint256"
            }
          ],
          "internalType": "struct Chess.Game[]",
          "name": "",
          "type": "tuple[]"
        }
      ],
      "stateMutability": "view",
      "type": "function"
    },
    {
      "inputs": [
        {
          "internalType": "address",
          "name": "side",
          "type": "address"
        },
        {
          "internalType": "uint256",
          "name": "game",
          "type": "uint256"
        }
      ],
      "name": "bet",
      "outputs": [],
      "stateMutability": "payable",
      "type": "function"
    }
  ],
  "bytecode": "0x608060405234801561001057600080fd5b5033600160006101000a81548173ffffffffffffffffffffffffffffffffffffffff021916908373ffffffffffffffffffffffffffffffffffffffff160217905550610620600081905550611d0c8061006a6000396000f3fe60806040526004361061009c5760003560e01c8063a507fa4111610064578063a507fa4114610191578063c7dd4b4f146101ce578063da19537f146101f9578063e374b09714610236578063efaa55a01461025f578063f846cabc1461027b5761009c565b80630696d04d146100a157806319c37afc146100df5780636632efbb1461011f5780637d03f5f31461015c5780638da5cb5b14610166575b600080fd5b3480156100ad57600080fd5b506100c860048036038101906100c391906114e4565b610297565b6040516100d6929190611520565b60405180910390f35b3480156100eb57600080fd5b50610106600480360381019061010191906114e4565b6102bb565b60405161011694939291906115ab565b60405180910390f35b34801561012b57600080fd5b506101466004803603810190610141919061161c565b61034b565b604051610153919061177a565b60405180910390f35b61016461055b565b005b34801561017257600080fd5b5061017b610696565b604051610188919061179c565b60405180910390f35b34801561019d57600080fd5b506101b860048036038101906101b3919061161c565b6106bc565b6040516101c591906117b7565b60405180910390f35b3480156101da57600080fd5b506101e361076f565b6040516101f091906117b7565b60405180910390f35b34801561020557600080fd5b50610220600480360381019061021b91906117d2565b610775565b60405161022d91906117b7565b60405180910390f35b34801561024257600080fd5b5061025d60048036038101906102589190611812565b6107a6565b005b610279600480360381019061027491906114e4565b610a80565b005b610295600480360381019061029091906117d2565b610b98565b005b60046020528060005260406000206000915090508060000154908060010154905082565b60026020528060005260406000206000915090508060000160009054906101000a900473ffffffffffffffffffffffffffffffffffffffff16908060010160009054906101000a900473ffffffffffffffffffffffffffffffffffffffff16908060020160009054906101000a900473ffffffffffffffffffffffffffffffffffffffff16908060030154905084565b60608060005b600360008573ffffffffffffffffffffffffffffffffffffffff1673ffffffffffffffffffffffffffffffffffffffff168152602001908152602001600020805490508110156105515760026000600360008773ffffffffffffffffffffffffffffffffffffffff1673ffffffffffffffffffffffffffffffffffffffff16815260200190815260200160002083815481106103f0576103ef611852565b5b906000526020600020015481526020019081526020016000206040518060800160405290816000820160009054906101000a900473ffffffffffffffffffffffffffffffffffffffff1673ffffffffffffffffffffffffffffffffffffffff1673ffffffffffffffffffffffffffffffffffffffff1681526020016001820160009054906101000a900473ffffffffffffffffffffffffffffffffffffffff1673ffffffffffffffffffffffffffffffffffffffff1673ffffffffffffffffffffffffffffffffffffffff1681526020016002820160009054906101000a900473ffffffffffffffffffffffffffffffffffffffff1673ffffffffffffffffffffffffffffffffffffffff1673ffffffffffffffffffffffffffffffffffffffff16815260200160038201548152505082828151811061053357610532611852565b5b60200260200101819052508080610549906118b0565b915050610351565b5080915050919050565b6000341161059e576040517f08c379a000000000000000000000000000000000000000000000000000000000815260040161059590611956565b60405180910390fd5b33600260008054815260200190815260200160002060000160006101000a81548173ffffffffffffffffffffffffffffffffffffffff021916908373ffffffffffffffffffffffffffffffffffffffff16021790555034600260008054815260200190815260200160002060030181905550600080549050600360003373ffffffffffffffffffffffffffffffffffffffff1673ffffffffffffffffffffffffffffffffffffffff16815260200190815260200160002081908060018154018082558091505060019003906000526020600020016000909190919091505560008081548092919061068e906118b0565b919050555050565b600160009054906101000a900473ffffffffffffffffffffffffffffffffffffffff1681565b6000600360008373ffffffffffffffffffffffffffffffffffffffff1673ffffffffffffffffffffffffffffffffffffffff1681526020019081526020016000206001600360008573ffffffffffffffffffffffffffffffffffffffff1673ffffffffffffffffffffffffffffffffffffffff1681526020019081526020016000208054905061074c9190611976565b8154811061075d5761075c611852565b5b90600052602060002001549050919050565b60005481565b6003602052816000526040600020818154811061079157600080fd5b90600052602060002001600091509150505481565b600060026000848152602001908152602001600020600301541415610800576040517f08c379a00000000000000000000000000000000000000000000000000000000081526004016107f7906119f6565b60405180910390fd5b600073ffffffffffffffffffffffffffffffffffffffff166002600084815260200190815260200160002060020160009054906101000a900473ffffffffffffffffffffffffffffffffffffffff1673ffffffffffffffffffffffffffffffffffffffff161461086f57600080fd5b6002600083815260200190815260200160002060000160009054906101000a900473ffffffffffffffffffffffffffffffffffffffff1673ffffffffffffffffffffffffffffffffffffffff168173ffffffffffffffffffffffffffffffffffffffff16148061094057506002600083815260200190815260200160002060010160009054906101000a900473ffffffffffffffffffffffffffffffffffffffff1673ffffffffffffffffffffffffffffffffffffffff168173ffffffffffffffffffffffffffffffffffffffff16145b61097f576040517f08c379a000000000000000000000000000000000000000000000000000000000815260040161097690611a62565b60405180910390fd5b806002600084815260200190815260200160002060020160006101000a81548173ffffffffffffffffffffffffffffffffffffffff021916908373ffffffffffffffffffffffffffffffffffffffff1602179055506002600083815260200190815260200160002060020160009054906101000a900473ffffffffffffffffffffffffffffffffffffffff1673ffffffffffffffffffffffffffffffffffffffff166108fc60026000858152602001908152602001600020600301546002610a479190611a82565b9081150290604051600060405180830381858888f19350505050158015610a72573d6000803e3d6000fd5b50610a7c82610f76565b5050565b600060026000838152602001908152602001600020600301541415610ada576040517f08c379a0000000000000000000000000000000000000000000000000000000008152600401610ad1906119f6565b60405180910390fd5b600360003373ffffffffffffffffffffffffffffffffffffffff1673ffffffffffffffffffffffffffffffffffffffff168152602001908152602001600020819080600181540180825580915050600190039060005260206000200160009091909190915055336002600083815260200190815260200160002060010160006101000a81548173ffffffffffffffffffffffffffffffffffffffff021916908373ffffffffffffffffffffffffffffffffffffffff16021790555050565b600060026000838152602001908152602001600020600301541415610bf2576040517f08c379a0000000000000000000000000000000000000000000000000000000008152600401610be990611b28565b60405180910390fd5b6002600082815260200190815260200160002060000160009054906101000a900473ffffffffffffffffffffffffffffffffffffffff1673ffffffffffffffffffffffffffffffffffffffff168273ffffffffffffffffffffffffffffffffffffffff161480610cc357506002600082815260200190815260200160002060010160009054906101000a900473ffffffffffffffffffffffffffffffffffffffff1673ffffffffffffffffffffffffffffffffffffffff168273ffffffffffffffffffffffffffffffffffffffff16145b610d02576040517f08c379a0000000000000000000000000000000000000000000000000000000008152600401610cf990611b94565b60405180910390fd5b610d0c338261137d565b610d4b576040517f08c379a0000000000000000000000000000000000000000000000000000000008152600401610d4290611c00565b60405180910390fd5b6002600082815260200190815260200160002060000160009054906101000a900473ffffffffffffffffffffffffffffffffffffffff1673ffffffffffffffffffffffffffffffffffffffff168273ffffffffffffffffffffffffffffffffffffffff161415610de75734600460008381526020019081526020016000206000016000828254610ddb9190611c20565b92505081905550610e15565b34600460008381526020019081526020016000206001016000828254610e0d9190611c20565b925050819055505b610e1d61145c565b3481600001818152505033816020019073ffffffffffffffffffffffffffffffffffffffff16908173ffffffffffffffffffffffffffffffffffffffff168152505082816040019073ffffffffffffffffffffffffffffffffffffffff16908173ffffffffffffffffffffffffffffffffffffffff1681525050600460008381526020019081526020016000206002018190806001815401808255809150506001900390600052602060002090600302016000909190919091506000820151816000015560208201518160010160006101000a81548173ffffffffffffffffffffffffffffffffffffffff021916908373ffffffffffffffffffffffffffffffffffffffff16021790555060408201518160020160006101000a81548173ffffffffffffffffffffffffffffffffffffffff021916908373ffffffffffffffffffffffffffffffffffffffff1602179055505050505050565b600080600060606000806002600088815260200190815260200160002060020160009054906101000a900473ffffffffffffffffffffffffffffffffffffffff16905060005b60046000898152602001908152602001600020600201805490508110156111a1578173ffffffffffffffffffffffffffffffffffffffff16600460008a8152602001908152602001600020600201828154811061101c5761101b611852565b5b906000526020600020906003020160020160009054906101000a900473ffffffffffffffffffffffffffffffffffffffff1673ffffffffffffffffffffffffffffffffffffffff16141561118e5760046000898152602001908152602001600020600201818154811061109257611091611852565b5b9060005260206000209060030201604051806060016040529081600082015481526020016001820160009054906101000a900473ffffffffffffffffffffffffffffffffffffffff1673ffffffffffffffffffffffffffffffffffffffff1673ffffffffffffffffffffffffffffffffffffffff1681526020016002820160009054906101000a900473ffffffffffffffffffffffffffffffffffffffff1673ffffffffffffffffffffffffffffffffffffffff1673ffffffffffffffffffffffffffffffffffffffff168152505084848151811061117457611173611852565b5b6020026020010181905250828061118a906118b0565b9350505b8080611199906118b0565b915050610fbc565b506002600088815260200190815260200160002060000160009054906101000a900473ffffffffffffffffffffffffffffffffffffffff1673ffffffffffffffffffffffffffffffffffffffff168173ffffffffffffffffffffffffffffffffffffffff16141561123f5760046000888152602001908152602001600020600001549450600460008881526020019081526020016000206001015493505b60005b8281101561137357600073ffffffffffffffffffffffffffffffffffffffff1684828151811061127557611274611852565b5b60200260200101516020015173ffffffffffffffffffffffffffffffffffffffff16146112be578381815181106112af576112ae611852565b5b60200260200101516000015196505b8381815181106112d1576112d0611852565b5b60200260200101516020015173ffffffffffffffffffffffffffffffffffffffff166108fc61271088612710896113089190611a82565b6113129190611ca5565b61271061131f9190611c20565b8a61132a9190611a82565b6113349190611ca5565b9081150290604051600060405180830381858888f1935050505015801561135f573d6000803e3d6000fd5b50808061136b906118b0565b915050611242565b5050505050505050565b600080600090505b6004600084815260200190815260200160002060020180549050811015611450578373ffffffffffffffffffffffffffffffffffffffff166004600085815260200190815260200160002060020182815481106113e5576113e4611852565b5b906000526020600020906003020160010160009054906101000a900473ffffffffffffffffffffffffffffffffffffffff1673ffffffffffffffffffffffffffffffffffffffff16141561143d576000915050611456565b8080611448906118b0565b915050611385565b50600190505b92915050565b604051806060016040528060008152602001600073ffffffffffffffffffffffffffffffffffffffff168152602001600073ffffffffffffffffffffffffffffffffffffffff1681525090565b600080fd5b6000819050919050565b6114c1816114ae565b81146114cc57600080fd5b50565b6000813590506114de816114b8565b92915050565b6000602082840312156114fa576114f96114a9565b5b6000611508848285016114cf565b91505092915050565b61151a816114ae565b82525050565b60006040820190506115356000830185611511565b6115426020830184611511565b9392505050565b600073ffffffffffffffffffffffffffffffffffffffff82169050919050565b600061157482611549565b9050919050565b61158481611569565b82525050565b600061159582611549565b9050919050565b6115a58161158a565b82525050565b60006080820190506115c0600083018761157b565b6115cd602083018661157b565b6115da604083018561159c565b6115e76060830184611511565b95945050505050565b6115f981611569565b811461160457600080fd5b50565b600081359050611616816115f0565b92915050565b600060208284031215611632576116316114a9565b5b600061164084828501611607565b91505092915050565b600081519050919050565b600082825260208201905092915050565b6000819050602082019050919050565b61167e81611569565b82525050565b61168d8161158a565b82525050565b61169c816114ae565b82525050565b6080820160008201516116b86000850182611675565b5060208201516116cb6020850182611675565b5060408201516116de6040850182611684565b5060608201516116f16060850182611693565b50505050565b600061170383836116a2565b60808301905092915050565b6000602082019050919050565b600061172782611649565b6117318185611654565b935061173c83611665565b8060005b8381101561176d57815161175488826116f7565b975061175f8361170f565b925050600181019050611740565b5085935050505092915050565b60006020820190508181036000830152611794818461171c565b905092915050565b60006020820190506117b1600083018461157b565b92915050565b60006020820190506117cc6000830184611511565b92915050565b600080604083850312156117e9576117e86114a9565b5b60006117f785828601611607565b9250506020611808858286016114cf565b9150509250929050565b60008060408385031215611829576118286114a9565b5b6000611837858286016114cf565b925050602061184885828601611607565b9150509250929050565b7f4e487b7100000000000000000000000000000000000000000000000000000000600052603260045260246000fd5b7f4e487b7100000000000000000000000000000000000000000000000000000000600052601160045260246000fd5b60006118bb826114ae565b91507fffffffffffffffffffffffffffffffffffffffffffffffffffffffffffffffff8214156118ee576118ed611881565b5b600182019050919050565b600082825260208201905092915050565b7f496e76616c69642042657420416d6f756e740000000000000000000000000000600082015250565b60006119406012836118f9565b915061194b8261190a565b602082019050919050565b6000602082019050818103600083015261196f81611933565b9050919050565b6000611981826114ae565b915061198c836114ae565b92508282101561199f5761199e611881565b5b828203905092915050565b7f47616d6520646f6573206e6f7420657869737400000000000000000000000000600082015250565b60006119e06013836118f9565b91506119eb826119aa565b602082019050919050565b60006020820190508181036000830152611a0f816119d3565b9050919050565b7f57696e6e6572206e6f742056616c696400000000000000000000000000000000600082015250565b6000611a4c6010836118f9565b9150611a5782611a16565b602082019050919050565b60006020820190508181036000830152611a7b81611a3f565b9050919050565b6000611a8d826114ae565b9150611a98836114ae565b9250817fffffffffffffffffffffffffffffffffffffffffffffffffffffffffffffffff0483118215151615611ad157611ad0611881565b5b828202905092915050565b7f47616d6520646f6573206e6f7420657869737473000000000000000000000000600082015250565b6000611b126014836118f9565b9150611b1d82611adc565b602082019050919050565b60006020820190508181036000830152611b4181611b05565b9050919050565b7f496e76616c696420426574000000000000000000000000000000000000000000600082015250565b6000611b7e600b836118f9565b9150611b8982611b48565b602082019050919050565b60006020820190508181036000830152611bad81611b71565b9050919050565b7f42657420616c7265616479204d61646500000000000000000000000000000000600082015250565b6000611bea6010836118f9565b9150611bf582611bb4565b602082019050919050565b60006020820190508181036000830152611c1981611bdd565b9050919050565b6000611c2b826114ae565b9150611c36836114ae565b9250827fffffffffffffffffffffffffffffffffffffffffffffffffffffffffffffffff03821115611c6b57611c6a611881565b5b828201905092915050565b7f4e487b7100000000000000000000000000000000000000000000000000000000600052601260045260246000fd5b6000611cb0826114ae565b9150611cbb836114ae565b925082611ccb57611cca611c76565b5b82820490509291505056fea264697066735822122013ed4c28720eb18f8aadd34a276996416f7295002e27dde5e778c0ad62df65a764736f6c634300080a0033",
  "immutableReferences": {},
  "source": "pragma solidity >=0.4.22 <0.9.0;\n\ncontract Chess {\n  uint256 public gameID;\n  address public owner;\n\n  struct Game {\n    address player1;\n    address player2;\n    address payable winner;\n    uint256 amountBet;\n  }\n\n  struct Better {\n    uint256 amountBet;\n    address payable betterAddress;\n    address betSide;\n  }\n\n  struct Bet {\n    uint256 amountPlayer1;\n    uint256 amountPlayer2;\n    Better[] betters;\n  }\n\n  mapping(uint256 => Game) public GameInfo;\n  mapping(address => uint256[]) public GamesPlayed;\n  mapping(uint256 => Bet) public BetInfo;\n\n  constructor() {\n    owner = msg.sender;\n    gameID = 1568;\n  }\n\n  function newGame() public payable{\n    require(msg.value > 0, \"Invalid Bet Amount\");\n    GameInfo[gameID].player1 = msg.sender;\n    GameInfo[gameID].amountBet = msg.value;\n    uint256 game = gameID;\n    GamesPlayed[msg.sender].push(game);\n    gameID++;\n  }\n\n  function getGameID(address player) public view returns(uint256){\n    return GamesPlayed[player][GamesPlayed[player].length-1];\n  }\n\n  function joinGame(uint256 game) public payable {\n    require(GameInfo[game].amountBet != 0, \"Game does not exist\");\n    GamesPlayed[msg.sender].push(game);\n    GameInfo[game].player2 = msg.sender;\n  }\n\n  function declareWinner(uint256 game, address winner) public {\n    require(GameInfo[game].amountBet != 0, \"Game does not exist\");\n    require(GameInfo[game].winner == address(0));\n    require(\n      winner == GameInfo[game].player1 || winner == GameInfo[game].player2,\n      \"Winner not Valid\"\n    );\n    GameInfo[game].winner = payable(winner);\n    GameInfo[game].winner.transfer(2 * (GameInfo[game].amountBet));\n    settleBet(game);\n  }\n\n  function getGames(address user) public view returns (Game[] memory) {\n    Game[] memory Games;\n    for (uint256 i = 0; i < GamesPlayed[user].length; i++) {\n      Games[i] = (GameInfo[GamesPlayed[user][i]]);\n    }\n    return Games;\n  }\n\n  function checkPlayer(address player, uint256 game)\n    private\n    view\n    returns (bool)\n  {\n    for (uint256 i = 0; i < BetInfo[game].betters.length; i++) {\n      if (BetInfo[game].betters[i].betterAddress == player) return false;\n    }\n    return true;\n  }\n\n  function bet(address side, uint256 game) public payable {\n    require(GameInfo[game].amountBet != 0, \"Game does not exists\");\n    require(\n      side == GameInfo[game].player1 || side == GameInfo[game].player2,\n      \"Invalid Bet\"\n    );\n    require(checkPlayer(msg.sender, game), \"Bet already Made\");\n    if (side == GameInfo[game].player1) {\n      BetInfo[game].amountPlayer1 += msg.value;\n    } else {\n      BetInfo[game].amountPlayer2 += msg.value;\n    }\n    Better memory user;\n    user.amountBet = msg.value;\n    user.betterAddress = payable(msg.sender);\n    user.betSide = side;\n\n    BetInfo[game].betters.push(user);\n  }\n\n  function settleBet(uint256 game) private {\n    uint256 transfer;\n    uint256 winAmount;\n    uint256 loseAmount;\n    Better[] memory winners;\n    uint256 count = 0;\n    address winnerSide = GameInfo[game].winner;\n    for (uint256 i = 0; i < BetInfo[game].betters.length; i++) {\n      if (BetInfo[game].betters[i].betSide == winnerSide) {\n        winners[count] = BetInfo[game].betters[i];\n        count++;\n      }\n    }\n    if (winnerSide == GameInfo[game].player1) {\n      winAmount = BetInfo[game].amountPlayer1;\n      loseAmount = BetInfo[game].amountPlayer2;\n    }\n    for (uint256 j = 0; j < count; j++) {\n      if (winners[j].betterAddress != address(0))\n        transfer = winners[j].amountBet;\n      winners[j].betterAddress.transfer(\n        (transfer * (10000 + ((loseAmount * 10000) / winAmount))) / 10000\n      );\n    }\n  }\n}\n",
  "sourcePath": "/home/mayank/chess-contract/contracts/Chess.sol",
  "compiler": {
    "name": "solc",
    "version": "0.8.10+commit.fc410830.Emscripten.clang"
  },
  "schemaVersion": "3.4.3",
  "updatedAt": "2021-12-09T23:07:44.700Z",
  "devdoc": {
    "kind": "dev",
    "methods": {},
    "version": 1
  },
  "userdoc": {
    "kind": "user",
    "methods": {},
    "version": 1
  }
}