{
  "contractName": "Chess",
  "abi": [
    {
      "inputs": [],
      "stateMutability": "nonpayable",
      "type": "constructor"
    },
    {
      "inputs": [
        {
          "internalType": "uint256",
          "name": "",
          "type": "uint256"
        }
      ],
      "name": "BetInfo",
      "outputs": [
        {
          "internalType": "uint256",
          "name": "amountPlayer1",
          "type": "uint256"
        },
        {
          "internalType": "uint256",
          "name": "amountPlayer2",
          "type": "uint256"
        }
      ],
      "stateMutability": "view",
      "type": "function"
    },
    {
      "inputs": [
        {
          "internalType": "uint256",
          "name": "",
          "type": "uint256"
        }
      ],
      "name": "GameInfo",
      "outputs": [
        {
          "internalType": "address",
          "name": "player1",
          "type": "address"
        },
        {
          "internalType": "address",
          "name": "player2",
          "type": "address"
        },
        {
          "internalType": "address payable",
          "name": "winner",
          "type": "address"
        },
        {
          "internalType": "uint256",
          "name": "amountBet",
          "type": "uint256"
        },
        {
          "internalType": "bool",
          "name": "finished",
          "type": "bool"
        }
      ],
      "stateMutability": "view",
      "type": "function"
    },
    {
      "inputs": [
        {
          "internalType": "address",
          "name": "",
          "type": "address"
        },
        {
          "internalType": "uint256",
          "name": "",
          "type": "uint256"
        }
      ],
      "name": "GamesPlayed",
      "outputs": [
        {
          "internalType": "uint256",
          "name": "",
          "type": "uint256"
        }
      ],
      "stateMutability": "view",
      "type": "function"
    },
    {
      "inputs": [],
      "name": "gameID",
      "outputs": [
        {
          "internalType": "uint256",
          "name": "",
          "type": "uint256"
        }
      ],
      "stateMutability": "view",
      "type": "function"
    },
    {
      "inputs": [],
      "name": "owner",
      "outputs": [
        {
          "internalType": "address",
          "name": "",
          "type": "address"
        }
      ],
      "stateMutability": "view",
      "type": "function"
    },
    {
      "inputs": [],
      "name": "newGame",
      "outputs": [],
      "stateMutability": "payable",
      "type": "function"
    },
    {
      "inputs": [
        {
          "internalType": "address",
          "name": "player",
          "type": "address"
        }
      ],
      "name": "getGameID",
      "outputs": [
        {
          "internalType": "uint256",
          "name": "",
          "type": "uint256"
        }
      ],
      "stateMutability": "view",
      "type": "function"
    },
    {
      "inputs": [
        {
          "internalType": "uint256",
          "name": "game",
          "type": "uint256"
        }
      ],
      "name": "getStake",
      "outputs": [
        {
          "internalType": "uint256",
          "name": "",
          "type": "uint256"
        }
      ],
      "stateMutability": "view",
      "type": "function"
    },
    {
      "inputs": [
        {
          "internalType": "uint256",
          "name": "game",
          "type": "uint256"
        }
      ],
      "name": "joinGame",
      "outputs": [],
      "stateMutability": "payable",
      "type": "function"
    },
    {
      "inputs": [
        {
          "internalType": "uint256",
          "name": "game",
          "type": "uint256"
        },
        {
          "internalType": "address",
          "name": "winner",
          "type": "address"
        }
      ],
      "name": "declareWinner",
      "outputs": [],
      "stateMutability": "nonpayable",
      "type": "function"
    },
    {
      "inputs": [
        {
          "internalType": "address",
          "name": "user",
          "type": "address"
        }
      ],
      "name": "getGames",
      "outputs": [
        {
          "internalType": "uint256[]",
          "name": "",
          "type": "uint256[]"
        }
      ],
      "stateMutability": "view",
      "type": "function"
    },
    {
      "inputs": [],
      "name": "getLatestGameId",
      "outputs": [
        {
          "internalType": "uint256",
          "name": "",
          "type": "uint256"
        }
      ],
      "stateMutability": "view",
      "type": "function"
    },
    {
      "inputs": [
        {
          "internalType": "uint256",
          "name": "game",
          "type": "uint256"
        }
      ],
      "name": "getGame",
      "outputs": [
        {
          "components": [
            {
              "internalType": "address",
              "name": "player1",
              "type": "address"
            },
            {
              "internalType": "address",
              "name": "player2",
              "type": "address"
            },
            {
              "internalType": "address payable",
              "name": "winner",
              "type": "address"
            },
            {
              "internalType": "uint256",
              "name": "amountBet",
              "type": "uint256"
            },
            {
              "internalType": "bool",
              "name": "finished",
              "type": "bool"
            }
          ],
          "internalType": "struct Chess.Game",
          "name": "",
          "type": "tuple"
        }
      ],
      "stateMutability": "view",
      "type": "function"
    },
    {
      "inputs": [
        {
          "internalType": "uint256",
          "name": "game",
          "type": "uint256"
        }
      ],
      "name": "getBet",
      "outputs": [
        {
          "components": [
            {
              "internalType": "uint256",
              "name": "amountPlayer1",
              "type": "uint256"
            },
            {
              "internalType": "uint256",
              "name": "amountPlayer2",
              "type": "uint256"
            },
            {
              "components": [
                {
                  "internalType": "uint256",
                  "name": "amountBet",
                  "type": "uint256"
                },
                {
                  "internalType": "address payable",
                  "name": "betterAddress",
                  "type": "address"
                },
                {
                  "internalType": "address",
                  "name": "betSide",
                  "type": "address"
                }
              ],
              "internalType": "struct Chess.Better[]",
              "name": "betters",
              "type": "tuple[]"
            }
          ],
          "internalType": "struct Chess.Bet",
          "name": "",
          "type": "tuple"
        }
      ],
      "stateMutability": "view",
      "type": "function"
    },
    {
      "inputs": [
        {
          "internalType": "address",
          "name": "side",
          "type": "address"
        },
        {
          "internalType": "uint256",
          "name": "game",
          "type": "uint256"
        }
      ],
      "name": "bet",
      "outputs": [],
      "stateMutability": "payable",
      "type": "function"
    }
  ],
  "bytecode": "0x608060405234801561001057600080fd5b5033600160006101000a81548173ffffffffffffffffffffffffffffffffffffffff021916908373ffffffffffffffffffffffffffffffffffffffff1602179055506106206000819055506121768061006a6000396000f3fe6080604052600436106100e85760003560e01c8063a2f77bcc1161008a578063da19537f11610059578063da19537f14610328578063e374b09714610365578063efaa55a01461038e578063f846cabc146103aa576100e8565b8063a2f77bcc14610246578063a507fa4114610283578063c7dd4b4f146102c0578063ce325bf8146102eb576100e8565b806339053ca6116100c657806339053ca6146101a95780636632efbb146101d45780637d03f5f3146102115780638da5cb5b1461021b576100e8565b8063061e494f146100ed5780630696d04d1461012a57806319c37afc14610168575b600080fd5b3480156100f957600080fd5b50610114600480360381019061010f91906117f1565b6103c6565b60405161012191906119d0565b60405180910390f35b34801561013657600080fd5b50610151600480360381019061014c91906117f1565b610528565b60405161015f929190611a01565b60405180910390f35b34801561017457600080fd5b5061018f600480360381019061018a91906117f1565b61054c565b6040516101a0959493929190611a63565b60405180910390f35b3480156101b557600080fd5b506101be6105ef565b6040516101cb9190611ab6565b60405180910390f35b3480156101e057600080fd5b506101fb60048036038101906101f69190611afd565b6105f8565b6040516102089190611bd9565b60405180910390f35b610219610695565b005b34801561022757600080fd5b50610230610800565b60405161023d9190611bfb565b60405180910390f35b34801561025257600080fd5b5061026d600480360381019061026891906117f1565b610826565b60405161027a9190611c8d565b60405180910390f35b34801561028f57600080fd5b506102aa60048036038101906102a59190611afd565b610986565b6040516102b79190611ab6565b60405180910390f35b3480156102cc57600080fd5b506102d5610a39565b6040516102e29190611ab6565b60405180910390f35b3480156102f757600080fd5b50610312600480360381019061030d91906117f1565b610a3f565b60405161031f9190611ab6565b60405180910390f35b34801561033457600080fd5b5061034f600480360381019061034a9190611ca8565b610a5f565b60405161035c9190611ab6565b60405180910390f35b34801561037157600080fd5b5061038c60048036038101906103879190611ce8565b610a90565b005b6103a860048036038101906103a391906117f1565b610e21565b005b6103c460048036038101906103bf9190611ca8565b610f39565b005b6103ce6116d5565b6103d66116d5565b60046000848152602001908152602001600020604051806060016040529081600082015481526020016001820154815260200160028201805480602002602001604051908101604052809291908181526020016000905b828210156105155783829060005260206000209060030201604051806060016040529081600082015481526020016001820160009054906101000a900473ffffffffffffffffffffffffffffffffffffffff1673ffffffffffffffffffffffffffffffffffffffff1673ffffffffffffffffffffffffffffffffffffffff1681526020016002820160009054906101000a900473ffffffffffffffffffffffffffffffffffffffff1673ffffffffffffffffffffffffffffffffffffffff1673ffffffffffffffffffffffffffffffffffffffff16815250508152602001906001019061042d565b5050505081525050905080915050919050565b60046020528060005260406000206000915090508060000154908060010154905082565b60026020528060005260406000206000915090508060000160009054906101000a900473ffffffffffffffffffffffffffffffffffffffff16908060010160009054906101000a900473ffffffffffffffffffffffffffffffffffffffff16908060020160009054906101000a900473ffffffffffffffffffffffffffffffffffffffff16908060030154908060040160009054906101000a900460ff16905085565b60008054905090565b60606000600360008473ffffffffffffffffffffffffffffffffffffffff1673ffffffffffffffffffffffffffffffffffffffff16815260200190815260200160002080548060200260200160405190810160405280929190818152602001828054801561068557602002820191906000526020600020905b815481526020019060010190808311610671575b5050505050905080915050919050565b600034116106d8576040517f08c379a00000000000000000000000000000000000000000000000000000000081526004016106cf90611d85565b60405180910390fd5b33600260008054815260200190815260200160002060000160006101000a81548173ffffffffffffffffffffffffffffffffffffffff021916908373ffffffffffffffffffffffffffffffffffffffff160217905550346002600080548152602001908152602001600020600301819055506000600260008054815260200190815260200160002060040160006101000a81548160ff021916908315150217905550600080549050600360003373ffffffffffffffffffffffffffffffffffffffff1673ffffffffffffffffffffffffffffffffffffffff1681526020019081526020016000208190806001815401808255809150506001900390600052602060002001600090919091909150556000808154809291906107f890611dd4565b919050555050565b600160009054906101000a900473ffffffffffffffffffffffffffffffffffffffff1681565b61082e6116f6565b6108366116f6565b600260008481526020019081526020016000206040518060a00160405290816000820160009054906101000a900473ffffffffffffffffffffffffffffffffffffffff1673ffffffffffffffffffffffffffffffffffffffff1673ffffffffffffffffffffffffffffffffffffffff1681526020016001820160009054906101000a900473ffffffffffffffffffffffffffffffffffffffff1673ffffffffffffffffffffffffffffffffffffffff1673ffffffffffffffffffffffffffffffffffffffff1681526020016002820160009054906101000a900473ffffffffffffffffffffffffffffffffffffffff1673ffffffffffffffffffffffffffffffffffffffff1673ffffffffffffffffffffffffffffffffffffffff168152602001600382015481526020016004820160009054906101000a900460ff161515151581525050905080915050919050565b6000600360008373ffffffffffffffffffffffffffffffffffffffff1673ffffffffffffffffffffffffffffffffffffffff1681526020019081526020016000206001600360008573ffffffffffffffffffffffffffffffffffffffff1673ffffffffffffffffffffffffffffffffffffffff16815260200190815260200160002080549050610a169190611e1d565b81548110610a2757610a26611e51565b5b90600052602060002001549050919050565b60005481565b600060026000838152602001908152602001600020600301549050919050565b60036020528160005260406000208181548110610a7b57600080fd5b90600052602060002001600091509150505481565b6002600083815260200190815260200160002060040160009054906101000a900460ff1615610abe57600080fd5b600060026000848152602001908152602001600020600301541415610b18576040517f08c379a0000000000000000000000000000000000000000000000000000000008152600401610b0f90611ecc565b60405180910390fd5b600073ffffffffffffffffffffffffffffffffffffffff166002600084815260200190815260200160002060020160009054906101000a900473ffffffffffffffffffffffffffffffffffffffff1673ffffffffffffffffffffffffffffffffffffffff1614610b8757600080fd5b600160009054906101000a900473ffffffffffffffffffffffffffffffffffffffff1673ffffffffffffffffffffffffffffffffffffffff163373ffffffffffffffffffffffffffffffffffffffff1614610be157600080fd5b6002600083815260200190815260200160002060000160009054906101000a900473ffffffffffffffffffffffffffffffffffffffff1673ffffffffffffffffffffffffffffffffffffffff168173ffffffffffffffffffffffffffffffffffffffff161480610cb257506002600083815260200190815260200160002060010160009054906101000a900473ffffffffffffffffffffffffffffffffffffffff1673ffffffffffffffffffffffffffffffffffffffff168173ffffffffffffffffffffffffffffffffffffffff16145b610cf1576040517f08c379a0000000000000000000000000000000000000000000000000000000008152600401610ce890611f38565b60405180910390fd5b806002600084815260200190815260200160002060020160006101000a81548173ffffffffffffffffffffffffffffffffffffffff021916908373ffffffffffffffffffffffffffffffffffffffff1602179055506002600083815260200190815260200160002060020160009054906101000a900473ffffffffffffffffffffffffffffffffffffffff1673ffffffffffffffffffffffffffffffffffffffff166108fc60026000858152602001908152602001600020600301546002610db99190611f58565b9081150290604051600060405180830381858888f19350505050158015610de4573d6000803e3d6000fd5b50610dee826112ce565b60016002600084815260200190815260200160002060040160006101000a81548160ff0219169083151502179055505050565b600060026000838152602001908152602001600020600301541415610e7b576040517f08c379a0000000000000000000000000000000000000000000000000000000008152600401610e7290611ecc565b60405180910390fd5b600360003373ffffffffffffffffffffffffffffffffffffffff1673ffffffffffffffffffffffffffffffffffffffff168152602001908152602001600020819080600181540180825580915050600190039060005260206000200160009091909190915055336002600083815260200190815260200160002060010160006101000a81548173ffffffffffffffffffffffffffffffffffffffff021916908373ffffffffffffffffffffffffffffffffffffffff16021790555050565b600060026000838152602001908152602001600020600301541415610f93576040517f08c379a0000000000000000000000000000000000000000000000000000000008152600401610f8a90611ffe565b60405180910390fd5b6002600082815260200190815260200160002060000160009054906101000a900473ffffffffffffffffffffffffffffffffffffffff1673ffffffffffffffffffffffffffffffffffffffff168273ffffffffffffffffffffffffffffffffffffffff16148061106457506002600082815260200190815260200160002060010160009054906101000a900473ffffffffffffffffffffffffffffffffffffffff1673ffffffffffffffffffffffffffffffffffffffff168273ffffffffffffffffffffffffffffffffffffffff16145b6110a3576040517f08c379a000000000000000000000000000000000000000000000000000000000815260040161109a9061206a565b60405180910390fd5b6002600082815260200190815260200160002060000160009054906101000a900473ffffffffffffffffffffffffffffffffffffffff1673ffffffffffffffffffffffffffffffffffffffff168273ffffffffffffffffffffffffffffffffffffffff16141561113f5734600460008381526020019081526020016000206000016000828254611133919061208a565b9250508190555061116d565b34600460008381526020019081526020016000206001016000828254611165919061208a565b925050819055505b611175611769565b3481600001818152505033816020019073ffffffffffffffffffffffffffffffffffffffff16908173ffffffffffffffffffffffffffffffffffffffff168152505082816040019073ffffffffffffffffffffffffffffffffffffffff16908173ffffffffffffffffffffffffffffffffffffffff1681525050600460008381526020019081526020016000206002018190806001815401808255809150506001900390600052602060002090600302016000909190919091506000820151816000015560208201518160010160006101000a81548173ffffffffffffffffffffffffffffffffffffffff021916908373ffffffffffffffffffffffffffffffffffffffff16021790555060408201518160020160006101000a81548173ffffffffffffffffffffffffffffffffffffffff021916908373ffffffffffffffffffffffffffffffffffffffff1602179055505050505050565b600080600060606000806002600088815260200190815260200160002060020160009054906101000a900473ffffffffffffffffffffffffffffffffffffffff16905060005b60046000898152602001908152602001600020600201805490508110156114f9578173ffffffffffffffffffffffffffffffffffffffff16600460008a8152602001908152602001600020600201828154811061137457611373611e51565b5b906000526020600020906003020160020160009054906101000a900473ffffffffffffffffffffffffffffffffffffffff1673ffffffffffffffffffffffffffffffffffffffff1614156114e6576004600089815260200190815260200160002060020181815481106113ea576113e9611e51565b5b9060005260206000209060030201604051806060016040529081600082015481526020016001820160009054906101000a900473ffffffffffffffffffffffffffffffffffffffff1673ffffffffffffffffffffffffffffffffffffffff1673ffffffffffffffffffffffffffffffffffffffff1681526020016002820160009054906101000a900473ffffffffffffffffffffffffffffffffffffffff1673ffffffffffffffffffffffffffffffffffffffff1673ffffffffffffffffffffffffffffffffffffffff16815250508484815181106114cc576114cb611e51565b5b602002602001018190525082806114e290611dd4565b9350505b80806114f190611dd4565b915050611314565b506002600088815260200190815260200160002060000160009054906101000a900473ffffffffffffffffffffffffffffffffffffffff1673ffffffffffffffffffffffffffffffffffffffff168173ffffffffffffffffffffffffffffffffffffffff1614156115975760046000888152602001908152602001600020600001549450600460008881526020019081526020016000206001015493505b60005b828110156116cb57600073ffffffffffffffffffffffffffffffffffffffff168482815181106115cd576115cc611e51565b5b60200260200101516020015173ffffffffffffffffffffffffffffffffffffffff16146116165783818151811061160757611606611e51565b5b60200260200101516000015196505b83818151811061162957611628611e51565b5b60200260200101516020015173ffffffffffffffffffffffffffffffffffffffff166108fc61271088612710896116609190611f58565b61166a919061210f565b612710611677919061208a565b8a6116829190611f58565b61168c919061210f565b9081150290604051600060405180830381858888f193505050501580156116b7573d6000803e3d6000fd5b5080806116c390611dd4565b91505061159a565b5050505050505050565b60405180606001604052806000815260200160008152602001606081525090565b6040518060a00160405280600073ffffffffffffffffffffffffffffffffffffffff168152602001600073ffffffffffffffffffffffffffffffffffffffff168152602001600073ffffffffffffffffffffffffffffffffffffffff168152602001600081526020016000151581525090565b604051806060016040528060008152602001600073ffffffffffffffffffffffffffffffffffffffff168152602001600073ffffffffffffffffffffffffffffffffffffffff1681525090565b600080fd5b6000819050919050565b6117ce816117bb565b81146117d957600080fd5b50565b6000813590506117eb816117c5565b92915050565b600060208284031215611807576118066117b6565b5b6000611815848285016117dc565b91505092915050565b611827816117bb565b82525050565b600081519050919050565b600082825260208201905092915050565b6000819050602082019050919050565b600073ffffffffffffffffffffffffffffffffffffffff82169050919050565b600061188482611859565b9050919050565b61189481611879565b82525050565b60006118a582611859565b9050919050565b6118b58161189a565b82525050565b6060820160008201516118d1600085018261181e565b5060208201516118e4602085018261188b565b5060408201516118f760408501826118ac565b50505050565b600061190983836118bb565b60608301905092915050565b6000602082019050919050565b600061192d8261182d565b6119378185611838565b935061194283611849565b8060005b8381101561197357815161195a88826118fd565b975061196583611915565b925050600181019050611946565b5085935050505092915050565b6000606083016000830151611998600086018261181e565b5060208301516119ab602086018261181e565b50604083015184820360408601526119c38282611922565b9150508091505092915050565b600060208201905081810360008301526119ea8184611980565b905092915050565b6119fb816117bb565b82525050565b6000604082019050611a1660008301856119f2565b611a2360208301846119f2565b9392505050565b611a338161189a565b82525050565b611a4281611879565b82525050565b60008115159050919050565b611a5d81611a48565b82525050565b600060a082019050611a786000830188611a2a565b611a856020830187611a2a565b611a926040830186611a39565b611a9f60608301856119f2565b611aac6080830184611a54565b9695505050505050565b6000602082019050611acb60008301846119f2565b92915050565b611ada8161189a565b8114611ae557600080fd5b50565b600081359050611af781611ad1565b92915050565b600060208284031215611b1357611b126117b6565b5b6000611b2184828501611ae8565b91505092915050565b600081519050919050565b600082825260208201905092915050565b6000819050602082019050919050565b6000611b62838361181e565b60208301905092915050565b6000602082019050919050565b6000611b8682611b2a565b611b908185611b35565b9350611b9b83611b46565b8060005b83811015611bcc578151611bb38882611b56565b9750611bbe83611b6e565b925050600181019050611b9f565b5085935050505092915050565b60006020820190508181036000830152611bf38184611b7b565b905092915050565b6000602082019050611c106000830184611a2a565b92915050565b611c1f81611a48565b82525050565b60a082016000820151611c3b60008501826118ac565b506020820151611c4e60208501826118ac565b506040820151611c61604085018261188b565b506060820151611c74606085018261181e565b506080820151611c876080850182611c16565b50505050565b600060a082019050611ca26000830184611c25565b92915050565b60008060408385031215611cbf57611cbe6117b6565b5b6000611ccd85828601611ae8565b9250506020611cde858286016117dc565b9150509250929050565b60008060408385031215611cff57611cfe6117b6565b5b6000611d0d858286016117dc565b9250506020611d1e85828601611ae8565b9150509250929050565b600082825260208201905092915050565b7f496e76616c69642042657420416d6f756e740000000000000000000000000000600082015250565b6000611d6f601283611d28565b9150611d7a82611d39565b602082019050919050565b60006020820190508181036000830152611d9e81611d62565b9050919050565b7f4e487b7100000000000000000000000000000000000000000000000000000000600052601160045260246000fd5b6000611ddf826117bb565b91507fffffffffffffffffffffffffffffffffffffffffffffffffffffffffffffffff821415611e1257611e11611da5565b5b600182019050919050565b6000611e28826117bb565b9150611e33836117bb565b925082821015611e4657611e45611da5565b5b828203905092915050565b7f4e487b7100000000000000000000000000000000000000000000000000000000600052603260045260246000fd5b7f47616d6520646f6573206e6f7420657869737400000000000000000000000000600082015250565b6000611eb6601383611d28565b9150611ec182611e80565b602082019050919050565b60006020820190508181036000830152611ee581611ea9565b9050919050565b7f57696e6e6572206e6f742056616c696400000000000000000000000000000000600082015250565b6000611f22601083611d28565b9150611f2d82611eec565b602082019050919050565b60006020820190508181036000830152611f5181611f15565b9050919050565b6000611f63826117bb565b9150611f6e836117bb565b9250817fffffffffffffffffffffffffffffffffffffffffffffffffffffffffffffffff0483118215151615611fa757611fa6611da5565b5b828202905092915050565b7f47616d6520646f6573206e6f7420657869737473000000000000000000000000600082015250565b6000611fe8601483611d28565b9150611ff382611fb2565b602082019050919050565b6000602082019050818103600083015261201781611fdb565b9050919050565b7f496e76616c696420426574000000000000000000000000000000000000000000600082015250565b6000612054600b83611d28565b915061205f8261201e565b602082019050919050565b6000602082019050818103600083015261208381612047565b9050919050565b6000612095826117bb565b91506120a0836117bb565b9250827fffffffffffffffffffffffffffffffffffffffffffffffffffffffffffffffff038211156120d5576120d4611da5565b5b828201905092915050565b7f4e487b7100000000000000000000000000000000000000000000000000000000600052601260045260246000fd5b600061211a826117bb565b9150612125836117bb565b925082612135576121346120e0565b5b82820490509291505056fea2646970667358221220d6708b786b18a1d8249091544eed49d74ba80c17dd2cd7cdccebe14242cd82cb64736f6c634300080a0033",
  "immutableReferences": {},
  "source": "pragma solidity >=0.4.22 <0.9.0;\n\ncontract Chess {\n    uint256 public gameID;\n    address public owner;\n\n    struct Game {\n        address player1;\n        address player2;\n        address payable winner;\n        uint256 amountBet;\n        bool finished;\n    }\n\n    struct Better {\n        uint256 amountBet;\n        address payable betterAddress;\n        address betSide;\n    }\n\n    struct Bet {\n        uint256 amountPlayer1;\n        uint256 amountPlayer2;\n        Better[] betters;\n    }\n\n    mapping(uint256 => Game) public GameInfo;\n    mapping(address => uint256[]) public GamesPlayed;\n    mapping(uint256 => Bet) public BetInfo;\n\n    constructor() {\n        owner = msg.sender;\n        gameID = 1568;\n    }\n\n    function newGame() public payable {\n        require(msg.value > 0, \"Invalid Bet Amount\");\n        GameInfo[gameID].player1 = msg.sender;\n        GameInfo[gameID].amountBet = msg.value;\n        GameInfo[gameID].finished = false;\n        uint256 game = gameID;\n        GamesPlayed[msg.sender].push(game);\n        gameID++;\n    }\n\n    function getGameID(address player) public view returns (uint256) {\n        return GamesPlayed[player][GamesPlayed[player].length - 1];\n    }\n\n    function getStake(uint256 game) public view returns (uint256) {\n        return GameInfo[game].amountBet;\n    }\n\n    function joinGame(uint256 game) public payable {\n        require(GameInfo[game].amountBet != 0, \"Game does not exist\");\n        GamesPlayed[msg.sender].push(game);\n        GameInfo[game].player2 = msg.sender;\n    }\n\n    function declareWinner(uint256 game, address winner) public {\n        require(!GameInfo[game].finished);\n        require(GameInfo[game].amountBet != 0, \"Game does not exist\");\n        require(GameInfo[game].winner == address(0));\n        require(msg.sender == owner);\n        require(\n            winner == GameInfo[game].player1 ||\n                winner == GameInfo[game].player2,\n            \"Winner not Valid\"\n        );\n        GameInfo[game].winner = payable(winner);\n        GameInfo[game].winner.transfer(2 * (GameInfo[game].amountBet));\n        settleBet(game);\n        GameInfo[game].finished = true;\n    }\n\n    function getGames(address user) public view returns (uint256[] memory) {\n        uint256[] memory games = GamesPlayed[user];\n        return games;\n    }\n\n    function getLatestGameId() public view returns (uint256) {\n        return gameID;\n    }\n\n    function getGame(uint256 game) public view returns (Game memory) {\n        Game memory requestedGame;\n        requestedGame = GameInfo[game];\n        return requestedGame;\n    }\n\n    function getBet(uint256 game) public view returns (Bet memory) {\n        Bet memory requestedGame;\n        requestedGame = BetInfo[game];\n        return requestedGame;\n    }\n\n\n    function checkPlayer(address player, uint256 game)\n        private\n        view\n        returns (bool)\n    {\n        for (uint256 i = 0; i < BetInfo[game].betters.length; i++) {\n            if (BetInfo[game].betters[i].betterAddress == player) return false;\n        }\n        return true;\n    }\n\n    function bet(address side, uint256 game) public payable {\n        require(GameInfo[game].amountBet != 0, \"Game does not exists\");\n        require(\n            side == GameInfo[game].player1 || side == GameInfo[game].player2,\n            \"Invalid Bet\"\n        );\n        //require(checkPlayer(msg.sender, game), \"Bet already Made\");\n        if (side == GameInfo[game].player1) {\n            BetInfo[game].amountPlayer1 += msg.value;\n        } else {\n            BetInfo[game].amountPlayer2 += msg.value;\n        }\n        Better memory user;\n        user.amountBet = msg.value;\n        user.betterAddress = payable(msg.sender);\n        user.betSide = side;\n\n        BetInfo[game].betters.push(user);\n    }\n\n    function settleBet(uint256 game) private {\n        uint256 transfer;\n        uint256 winAmount;\n        uint256 loseAmount;\n        Better[] memory winners;\n        uint256 count = 0;\n        address winnerSide = GameInfo[game].winner;\n        for (uint256 i = 0; i < BetInfo[game].betters.length; i++) {\n            if (BetInfo[game].betters[i].betSide == winnerSide) {\n                winners[count] = BetInfo[game].betters[i];\n                count++;\n            }\n        }\n        if (winnerSide == GameInfo[game].player1) {\n            winAmount = BetInfo[game].amountPlayer1;\n            loseAmount = BetInfo[game].amountPlayer2;\n        }\n        for (uint256 j = 0; j < count; j++) {\n            if (winners[j].betterAddress != address(0))\n                transfer = winners[j].amountBet;\n            winners[j].betterAddress.transfer(\n                (transfer * (10000 + ((loseAmount * 10000) / winAmount))) /\n                    10000\n            );\n        }\n    }\n}\n",
  "sourcePath": "/home/mayank/crypto-chess/contracts/Chess.sol",
  "compiler": {
    "name": "solc",
    "version": "0.8.10+commit.fc410830.Emscripten.clang"
  },
  "schemaVersion": "3.4.3",
  "updatedAt": "2021-12-12T17:08:18.837Z",
  "devdoc": {
    "kind": "dev",
    "methods": {},
    "version": 1
  },
  "userdoc": {
    "kind": "user",
    "methods": {},
    "version": 1
  }
}