{
  "contractName": "Chess",
  "abi": [
    {
      "inputs": [],
      "stateMutability": "nonpayable",
      "type": "constructor"
    },
    {
      "inputs": [
        {
          "internalType": "uint256",
          "name": "",
          "type": "uint256"
        }
      ],
      "name": "BetInfo",
      "outputs": [
        {
          "internalType": "uint256",
          "name": "amountPlayer1",
          "type": "uint256"
        },
        {
          "internalType": "uint256",
          "name": "amountPlayer2",
          "type": "uint256"
        }
      ],
      "stateMutability": "view",
      "type": "function",
      "constant": true
    },
    {
      "inputs": [
        {
          "internalType": "uint256",
          "name": "",
          "type": "uint256"
        }
      ],
      "name": "GameInfo",
      "outputs": [
        {
          "internalType": "address",
          "name": "player1",
          "type": "address"
        },
        {
          "internalType": "address",
          "name": "player2",
          "type": "address"
        },
        {
          "internalType": "address payable",
          "name": "winner",
          "type": "address"
        },
        {
          "internalType": "uint256",
          "name": "amountBet",
          "type": "uint256"
        },
        {
          "internalType": "bool",
          "name": "finished",
          "type": "bool"
        }
      ],
      "stateMutability": "view",
      "type": "function",
      "constant": true
    },
    {
      "inputs": [
        {
          "internalType": "address",
          "name": "",
          "type": "address"
        },
        {
          "internalType": "uint256",
          "name": "",
          "type": "uint256"
        }
      ],
      "name": "GamesPlayed",
      "outputs": [
        {
          "internalType": "uint256",
          "name": "",
          "type": "uint256"
        }
      ],
      "stateMutability": "view",
      "type": "function",
      "constant": true
    },
    {
      "inputs": [],
      "name": "gameID",
      "outputs": [
        {
          "internalType": "uint256",
          "name": "",
          "type": "uint256"
        }
      ],
      "stateMutability": "view",
      "type": "function",
      "constant": true
    },
    {
      "inputs": [],
      "name": "owner",
      "outputs": [
        {
          "internalType": "address",
          "name": "",
          "type": "address"
        }
      ],
      "stateMutability": "view",
      "type": "function",
      "constant": true
    },
    {
      "inputs": [],
      "name": "newGame",
      "outputs": [],
      "stateMutability": "payable",
      "type": "function",
      "payable": true
    },
    {
      "inputs": [
        {
          "internalType": "address",
          "name": "player",
          "type": "address"
        }
      ],
      "name": "getGameID",
      "outputs": [
        {
          "internalType": "uint256",
          "name": "",
          "type": "uint256"
        }
      ],
      "stateMutability": "view",
      "type": "function",
      "constant": true
    },
    {
      "inputs": [
        {
          "internalType": "uint256",
          "name": "game",
          "type": "uint256"
        }
      ],
      "name": "getStake",
      "outputs": [
        {
          "internalType": "uint256",
          "name": "",
          "type": "uint256"
        }
      ],
      "stateMutability": "view",
      "type": "function",
      "constant": true
    },
    {
      "inputs": [
        {
          "internalType": "uint256",
          "name": "game",
          "type": "uint256"
        }
      ],
      "name": "joinGame",
      "outputs": [],
      "stateMutability": "payable",
      "type": "function",
      "payable": true
    },
    {
      "inputs": [
        {
          "internalType": "uint256",
          "name": "game",
          "type": "uint256"
        },
        {
          "internalType": "address",
          "name": "winner",
          "type": "address"
        }
      ],
      "name": "declareWinner",
      "outputs": [],
      "stateMutability": "nonpayable",
      "type": "function"
    },
    {
      "inputs": [
        {
          "internalType": "address",
          "name": "user",
          "type": "address"
        }
      ],
      "name": "getGames",
      "outputs": [
        {
          "internalType": "uint256[]",
          "name": "",
          "type": "uint256[]"
        }
      ],
      "stateMutability": "view",
      "type": "function",
      "constant": true
    },
    {
      "inputs": [
        {
          "internalType": "uint256",
          "name": "game",
          "type": "uint256"
        }
      ],
      "name": "getGame",
      "outputs": [
        {
          "components": [
            {
              "internalType": "address",
              "name": "player1",
              "type": "address"
            },
            {
              "internalType": "address",
              "name": "player2",
              "type": "address"
            },
            {
              "internalType": "address payable",
              "name": "winner",
              "type": "address"
            },
            {
              "internalType": "uint256",
              "name": "amountBet",
              "type": "uint256"
            },
            {
              "internalType": "bool",
              "name": "finished",
              "type": "bool"
            }
          ],
          "internalType": "struct Chess.Game",
          "name": "",
          "type": "tuple"
        }
      ],
      "stateMutability": "view",
      "type": "function",
      "constant": true
    },
    {
      "inputs": [
        {
          "internalType": "address",
          "name": "side",
          "type": "address"
        },
        {
          "internalType": "uint256",
          "name": "game",
          "type": "uint256"
        }
      ],
      "name": "bet",
      "outputs": [],
      "stateMutability": "payable",
      "type": "function",
      "payable": true
    }
  ],
  "bytecode": "0x608060405234801561001057600080fd5b5033600160006101000a81548173ffffffffffffffffffffffffffffffffffffffff021916908373ffffffffffffffffffffffffffffffffffffffff160217905550610620600081905550611df98061006a6000396000f3fe6080604052600436106100c25760003560e01c8063a507fa411161007f578063da19537f11610059578063da19537f1461029a578063e374b097146102d7578063efaa55a014610300578063f846cabc1461031c576100c2565b8063a507fa41146101f5578063c7dd4b4f14610232578063ce325bf81461025d576100c2565b80630696d04d146100c757806319c37afc146101055780636632efbb146101465780637d03f5f3146101835780638da5cb5b1461018d578063a2f77bcc146101b8575b600080fd5b3480156100d357600080fd5b506100ee60048036038101906100e991906115d7565b610338565b6040516100fc929190611613565b60405180910390f35b34801561011157600080fd5b5061012c600480360381019061012791906115d7565b61035c565b60405161013d9594939291906116b9565b60405180910390f35b34801561015257600080fd5b5061016d60048036038101906101689190611738565b6103ff565b60405161017a9190611823565b60405180910390f35b61018b61049c565b005b34801561019957600080fd5b506101a2610607565b6040516101af9190611845565b60405180910390f35b3480156101c457600080fd5b506101df60048036038101906101da91906115d7565b61062d565b6040516101ec91906118f5565b60405180910390f35b34801561020157600080fd5b5061021c60048036038101906102179190611738565b61078d565b6040516102299190611910565b60405180910390f35b34801561023e57600080fd5b50610247610840565b6040516102549190611910565b60405180910390f35b34801561026957600080fd5b50610284600480360381019061027f91906115d7565b610846565b6040516102919190611910565b60405180910390f35b3480156102a657600080fd5b506102c160048036038101906102bc919061192b565b610866565b6040516102ce9190611910565b60405180910390f35b3480156102e357600080fd5b506102fe60048036038101906102f9919061196b565b610897565b005b61031a600480360381019061031591906115d7565b610c28565b005b6103366004803603810190610331919061192b565b610d40565b005b60046020528060005260406000206000915090508060000154908060010154905082565b60026020528060005260406000206000915090508060000160009054906101000a900473ffffffffffffffffffffffffffffffffffffffff16908060010160009054906101000a900473ffffffffffffffffffffffffffffffffffffffff16908060020160009054906101000a900473ffffffffffffffffffffffffffffffffffffffff16908060030154908060040160009054906101000a900460ff16905085565b60606000600360008473ffffffffffffffffffffffffffffffffffffffff1673ffffffffffffffffffffffffffffffffffffffff16815260200190815260200160002080548060200260200160405190810160405280929190818152602001828054801561048c57602002820191906000526020600020905b815481526020019060010190808311610478575b5050505050905080915050919050565b600034116104df576040517f08c379a00000000000000000000000000000000000000000000000000000000081526004016104d690611a08565b60405180910390fd5b33600260008054815260200190815260200160002060000160006101000a81548173ffffffffffffffffffffffffffffffffffffffff021916908373ffffffffffffffffffffffffffffffffffffffff160217905550346002600080548152602001908152602001600020600301819055506000600260008054815260200190815260200160002060040160006101000a81548160ff021916908315150217905550600080549050600360003373ffffffffffffffffffffffffffffffffffffffff1673ffffffffffffffffffffffffffffffffffffffff1681526020019081526020016000208190806001815401808255809150506001900390600052602060002001600090919091909150556000808154809291906105ff90611a57565b919050555050565b600160009054906101000a900473ffffffffffffffffffffffffffffffffffffffff1681565b6106356114dc565b61063d6114dc565b600260008481526020019081526020016000206040518060a00160405290816000820160009054906101000a900473ffffffffffffffffffffffffffffffffffffffff1673ffffffffffffffffffffffffffffffffffffffff1673ffffffffffffffffffffffffffffffffffffffff1681526020016001820160009054906101000a900473ffffffffffffffffffffffffffffffffffffffff1673ffffffffffffffffffffffffffffffffffffffff1673ffffffffffffffffffffffffffffffffffffffff1681526020016002820160009054906101000a900473ffffffffffffffffffffffffffffffffffffffff1673ffffffffffffffffffffffffffffffffffffffff1673ffffffffffffffffffffffffffffffffffffffff168152602001600382015481526020016004820160009054906101000a900460ff161515151581525050905080915050919050565b6000600360008373ffffffffffffffffffffffffffffffffffffffff1673ffffffffffffffffffffffffffffffffffffffff1681526020019081526020016000206001600360008573ffffffffffffffffffffffffffffffffffffffff1673ffffffffffffffffffffffffffffffffffffffff1681526020019081526020016000208054905061081d9190611aa0565b8154811061082e5761082d611ad4565b5b90600052602060002001549050919050565b60005481565b600060026000838152602001908152602001600020600301549050919050565b6003602052816000526040600020818154811061088257600080fd5b90600052602060002001600091509150505481565b6002600083815260200190815260200160002060040160009054906101000a900460ff16156108c557600080fd5b60006002600084815260200190815260200160002060030154141561091f576040517f08c379a000000000000000000000000000000000000000000000000000000000815260040161091690611b4f565b60405180910390fd5b600073ffffffffffffffffffffffffffffffffffffffff166002600084815260200190815260200160002060020160009054906101000a900473ffffffffffffffffffffffffffffffffffffffff1673ffffffffffffffffffffffffffffffffffffffff161461098e57600080fd5b600160009054906101000a900473ffffffffffffffffffffffffffffffffffffffff1673ffffffffffffffffffffffffffffffffffffffff163373ffffffffffffffffffffffffffffffffffffffff16146109e857600080fd5b6002600083815260200190815260200160002060000160009054906101000a900473ffffffffffffffffffffffffffffffffffffffff1673ffffffffffffffffffffffffffffffffffffffff168173ffffffffffffffffffffffffffffffffffffffff161480610ab957506002600083815260200190815260200160002060010160009054906101000a900473ffffffffffffffffffffffffffffffffffffffff1673ffffffffffffffffffffffffffffffffffffffff168173ffffffffffffffffffffffffffffffffffffffff16145b610af8576040517f08c379a0000000000000000000000000000000000000000000000000000000008152600401610aef90611bbb565b60405180910390fd5b806002600084815260200190815260200160002060020160006101000a81548173ffffffffffffffffffffffffffffffffffffffff021916908373ffffffffffffffffffffffffffffffffffffffff1602179055506002600083815260200190815260200160002060020160009054906101000a900473ffffffffffffffffffffffffffffffffffffffff1673ffffffffffffffffffffffffffffffffffffffff166108fc60026000858152602001908152602001600020600301546002610bc09190611bdb565b9081150290604051600060405180830381858888f19350505050158015610beb573d6000803e3d6000fd5b50610bf5826110d5565b60016002600084815260200190815260200160002060040160006101000a81548160ff0219169083151502179055505050565b600060026000838152602001908152602001600020600301541415610c82576040517f08c379a0000000000000000000000000000000000000000000000000000000008152600401610c7990611b4f565b60405180910390fd5b600360003373ffffffffffffffffffffffffffffffffffffffff1673ffffffffffffffffffffffffffffffffffffffff168152602001908152602001600020819080600181540180825580915050600190039060005260206000200160009091909190915055336002600083815260200190815260200160002060010160006101000a81548173ffffffffffffffffffffffffffffffffffffffff021916908373ffffffffffffffffffffffffffffffffffffffff16021790555050565b600060026000838152602001908152602001600020600301541415610d9a576040517f08c379a0000000000000000000000000000000000000000000000000000000008152600401610d9190611c81565b60405180910390fd5b6002600082815260200190815260200160002060000160009054906101000a900473ffffffffffffffffffffffffffffffffffffffff1673ffffffffffffffffffffffffffffffffffffffff168273ffffffffffffffffffffffffffffffffffffffff161480610e6b57506002600082815260200190815260200160002060010160009054906101000a900473ffffffffffffffffffffffffffffffffffffffff1673ffffffffffffffffffffffffffffffffffffffff168273ffffffffffffffffffffffffffffffffffffffff16145b610eaa576040517f08c379a0000000000000000000000000000000000000000000000000000000008152600401610ea190611ced565b60405180910390fd5b6002600082815260200190815260200160002060000160009054906101000a900473ffffffffffffffffffffffffffffffffffffffff1673ffffffffffffffffffffffffffffffffffffffff168273ffffffffffffffffffffffffffffffffffffffff161415610f465734600460008381526020019081526020016000206000016000828254610f3a9190611d0d565b92505081905550610f74565b34600460008381526020019081526020016000206001016000828254610f6c9190611d0d565b925050819055505b610f7c61154f565b3481600001818152505033816020019073ffffffffffffffffffffffffffffffffffffffff16908173ffffffffffffffffffffffffffffffffffffffff168152505082816040019073ffffffffffffffffffffffffffffffffffffffff16908173ffffffffffffffffffffffffffffffffffffffff1681525050600460008381526020019081526020016000206002018190806001815401808255809150506001900390600052602060002090600302016000909190919091506000820151816000015560208201518160010160006101000a81548173ffffffffffffffffffffffffffffffffffffffff021916908373ffffffffffffffffffffffffffffffffffffffff16021790555060408201518160020160006101000a81548173ffffffffffffffffffffffffffffffffffffffff021916908373ffffffffffffffffffffffffffffffffffffffff1602179055505050505050565b600080600060606000806002600088815260200190815260200160002060020160009054906101000a900473ffffffffffffffffffffffffffffffffffffffff16905060005b6004600089815260200190815260200160002060020180549050811015611300578173ffffffffffffffffffffffffffffffffffffffff16600460008a8152602001908152602001600020600201828154811061117b5761117a611ad4565b5b906000526020600020906003020160020160009054906101000a900473ffffffffffffffffffffffffffffffffffffffff1673ffffffffffffffffffffffffffffffffffffffff1614156112ed576004600089815260200190815260200160002060020181815481106111f1576111f0611ad4565b5b9060005260206000209060030201604051806060016040529081600082015481526020016001820160009054906101000a900473ffffffffffffffffffffffffffffffffffffffff1673ffffffffffffffffffffffffffffffffffffffff1673ffffffffffffffffffffffffffffffffffffffff1681526020016002820160009054906101000a900473ffffffffffffffffffffffffffffffffffffffff1673ffffffffffffffffffffffffffffffffffffffff1673ffffffffffffffffffffffffffffffffffffffff16815250508484815181106112d3576112d2611ad4565b5b602002602001018190525082806112e990611a57565b9350505b80806112f890611a57565b91505061111b565b506002600088815260200190815260200160002060000160009054906101000a900473ffffffffffffffffffffffffffffffffffffffff1673ffffffffffffffffffffffffffffffffffffffff168173ffffffffffffffffffffffffffffffffffffffff16141561139e5760046000888152602001908152602001600020600001549450600460008881526020019081526020016000206001015493505b60005b828110156114d257600073ffffffffffffffffffffffffffffffffffffffff168482815181106113d4576113d3611ad4565b5b60200260200101516020015173ffffffffffffffffffffffffffffffffffffffff161461141d5783818151811061140e5761140d611ad4565b5b60200260200101516000015196505b8381815181106114305761142f611ad4565b5b60200260200101516020015173ffffffffffffffffffffffffffffffffffffffff166108fc61271088612710896114679190611bdb565b6114719190611d92565b61271061147e9190611d0d565b8a6114899190611bdb565b6114939190611d92565b9081150290604051600060405180830381858888f193505050501580156114be573d6000803e3d6000fd5b5080806114ca90611a57565b9150506113a1565b5050505050505050565b6040518060a00160405280600073ffffffffffffffffffffffffffffffffffffffff168152602001600073ffffffffffffffffffffffffffffffffffffffff168152602001600073ffffffffffffffffffffffffffffffffffffffff168152602001600081526020016000151581525090565b604051806060016040528060008152602001600073ffffffffffffffffffffffffffffffffffffffff168152602001600073ffffffffffffffffffffffffffffffffffffffff1681525090565b600080fd5b6000819050919050565b6115b4816115a1565b81146115bf57600080fd5b50565b6000813590506115d1816115ab565b92915050565b6000602082840312156115ed576115ec61159c565b5b60006115fb848285016115c2565b91505092915050565b61160d816115a1565b82525050565b60006040820190506116286000830185611604565b6116356020830184611604565b9392505050565b600073ffffffffffffffffffffffffffffffffffffffff82169050919050565b60006116678261163c565b9050919050565b6116778161165c565b82525050565b60006116888261163c565b9050919050565b6116988161167d565b82525050565b60008115159050919050565b6116b38161169e565b82525050565b600060a0820190506116ce600083018861166e565b6116db602083018761166e565b6116e8604083018661168f565b6116f56060830185611604565b61170260808301846116aa565b9695505050505050565b6117158161165c565b811461172057600080fd5b50565b6000813590506117328161170c565b92915050565b60006020828403121561174e5761174d61159c565b5b600061175c84828501611723565b91505092915050565b600081519050919050565b600082825260208201905092915050565b6000819050602082019050919050565b61179a816115a1565b82525050565b60006117ac8383611791565b60208301905092915050565b6000602082019050919050565b60006117d082611765565b6117da8185611770565b93506117e583611781565b8060005b838110156118165781516117fd88826117a0565b9750611808836117b8565b9250506001810190506117e9565b5085935050505092915050565b6000602082019050818103600083015261183d81846117c5565b905092915050565b600060208201905061185a600083018461166e565b92915050565b6118698161165c565b82525050565b6118788161167d565b82525050565b6118878161169e565b82525050565b60a0820160008201516118a36000850182611860565b5060208201516118b66020850182611860565b5060408201516118c9604085018261186f565b5060608201516118dc6060850182611791565b5060808201516118ef608085018261187e565b50505050565b600060a08201905061190a600083018461188d565b92915050565b60006020820190506119256000830184611604565b92915050565b600080604083850312156119425761194161159c565b5b600061195085828601611723565b9250506020611961858286016115c2565b9150509250929050565b600080604083850312156119825761198161159c565b5b6000611990858286016115c2565b92505060206119a185828601611723565b9150509250929050565b600082825260208201905092915050565b7f496e76616c69642042657420416d6f756e740000000000000000000000000000600082015250565b60006119f26012836119ab565b91506119fd826119bc565b602082019050919050565b60006020820190508181036000830152611a21816119e5565b9050919050565b7f4e487b7100000000000000000000000000000000000000000000000000000000600052601160045260246000fd5b6000611a62826115a1565b91507fffffffffffffffffffffffffffffffffffffffffffffffffffffffffffffffff821415611a9557611a94611a28565b5b600182019050919050565b6000611aab826115a1565b9150611ab6836115a1565b925082821015611ac957611ac8611a28565b5b828203905092915050565b7f4e487b7100000000000000000000000000000000000000000000000000000000600052603260045260246000fd5b7f47616d6520646f6573206e6f7420657869737400000000000000000000000000600082015250565b6000611b396013836119ab565b9150611b4482611b03565b602082019050919050565b60006020820190508181036000830152611b6881611b2c565b9050919050565b7f57696e6e6572206e6f742056616c696400000000000000000000000000000000600082015250565b6000611ba56010836119ab565b9150611bb082611b6f565b602082019050919050565b60006020820190508181036000830152611bd481611b98565b9050919050565b6000611be6826115a1565b9150611bf1836115a1565b9250817fffffffffffffffffffffffffffffffffffffffffffffffffffffffffffffffff0483118215151615611c2a57611c29611a28565b5b828202905092915050565b7f47616d6520646f6573206e6f7420657869737473000000000000000000000000600082015250565b6000611c6b6014836119ab565b9150611c7682611c35565b602082019050919050565b60006020820190508181036000830152611c9a81611c5e565b9050919050565b7f496e76616c696420426574000000000000000000000000000000000000000000600082015250565b6000611cd7600b836119ab565b9150611ce282611ca1565b602082019050919050565b60006020820190508181036000830152611d0681611cca565b9050919050565b6000611d18826115a1565b9150611d23836115a1565b9250827fffffffffffffffffffffffffffffffffffffffffffffffffffffffffffffffff03821115611d5857611d57611a28565b5b828201905092915050565b7f4e487b7100000000000000000000000000000000000000000000000000000000600052601260045260246000fd5b6000611d9d826115a1565b9150611da8836115a1565b925082611db857611db7611d63565b5b82820490509291505056fea264697066735822122031b519a52d30ffa9f797879807d9062541cfd5eabbbd050d29953ec67cc69cbb64736f6c634300080a0033",
  "immutableReferences": {},
  "source": "pragma solidity >=0.4.22 <0.9.0;\n\ncontract Chess {\n    uint256 public gameID;\n    address public owner;\n\n    struct Game {\n        address player1;\n        address player2;\n        address payable winner;\n        uint256 amountBet;\n        bool finished;\n    }\n\n    struct Better {\n        uint256 amountBet;\n        address payable betterAddress;\n        address betSide;\n    }\n\n    struct Bet {\n        uint256 amountPlayer1;\n        uint256 amountPlayer2;\n        Better[] betters;\n    }\n\n    mapping(uint256 => Game) public GameInfo;\n    mapping(address => uint256[]) public GamesPlayed;\n    mapping(uint256 => Bet) public BetInfo;\n\n    constructor() {\n        owner = msg.sender;\n        gameID = 1568;\n    }\n\n    function newGame() public payable {\n        require(msg.value > 0, \"Invalid Bet Amount\");\n        GameInfo[gameID].player1 = msg.sender;\n        GameInfo[gameID].amountBet = msg.value;\n        GameInfo[gameID].finished = false;\n        uint256 game = gameID;\n        GamesPlayed[msg.sender].push(game);\n        gameID++;\n    }\n\n    function getGameID(address player) public view returns (uint256) {\n        return GamesPlayed[player][GamesPlayed[player].length - 1];\n    }\n\n    function getStake(uint256 game) public view returns (uint256) {\n        return GameInfo[game].amountBet;\n    }\n\n    function joinGame(uint256 game) public payable {\n        require(GameInfo[game].amountBet != 0, \"Game does not exist\");\n        GamesPlayed[msg.sender].push(game);\n        GameInfo[game].player2 = msg.sender;\n    }\n\n    function declareWinner(uint256 game, address winner) public {\n        require(!GameInfo[game].finished);\n        require(GameInfo[game].amountBet != 0, \"Game does not exist\");\n        require(GameInfo[game].winner == address(0));\n        require(msg.sender == owner);\n        require(\n            winner == GameInfo[game].player1 ||\n                winner == GameInfo[game].player2,\n            \"Winner not Valid\"\n        );\n        GameInfo[game].winner = payable(winner);\n        GameInfo[game].winner.transfer(2 * (GameInfo[game].amountBet));\n        settleBet(game);\n        GameInfo[game].finished = true;\n    }\n\n    function getGames(address user) public view returns (uint256[] memory) {\n      uint256[] memory games=GamesPlayed[user];\n      return games;\n    }\n\n    function getGame(uint256 game) public view returns (Game memory) {\n        Game memory requestedGame;\n        requestedGame = GameInfo[game];\n        return requestedGame;\n    }\n\n    function checkPlayer(address player, uint256 game)\n        private\n        view\n        returns (bool)\n    {\n        for (uint256 i = 0; i < BetInfo[game].betters.length; i++) {\n            if (BetInfo[game].betters[i].betterAddress == player) return false;\n        }\n        return true;\n    }\n\n    function bet(address side, uint256 game) public payable {\n        require(GameInfo[game].amountBet != 0, \"Game does not exists\");\n        require(\n            side == GameInfo[game].player1 || side == GameInfo[game].player2,\n            \"Invalid Bet\"\n        );\n        //require(checkPlayer(msg.sender, game), \"Bet already Made\");\n        if (side == GameInfo[game].player1) {\n            BetInfo[game].amountPlayer1 += msg.value;\n        } else {\n            BetInfo[game].amountPlayer2 += msg.value;\n        }\n        Better memory user;\n        user.amountBet = msg.value;\n        user.betterAddress = payable(msg.sender);\n        user.betSide = side;\n\n        BetInfo[game].betters.push(user);\n    }\n\n    function settleBet(uint256 game) private {\n        uint256 transfer;\n        uint256 winAmount;\n        uint256 loseAmount;\n        Better[] memory winners;\n        uint256 count = 0;\n        address winnerSide = GameInfo[game].winner;\n        for (uint256 i = 0; i < BetInfo[game].betters.length; i++) {\n            if (BetInfo[game].betters[i].betSide == winnerSide) {\n                winners[count] = BetInfo[game].betters[i];\n                count++;\n            }\n        }\n        if (winnerSide == GameInfo[game].player1) {\n            winAmount = BetInfo[game].amountPlayer1;\n            loseAmount = BetInfo[game].amountPlayer2;\n        }\n        for (uint256 j = 0; j < count; j++) {\n            if (winners[j].betterAddress != address(0))\n                transfer = winners[j].amountBet;\n            winners[j].betterAddress.transfer(\n                (transfer * (10000 + ((loseAmount * 10000) / winAmount))) /\n                    10000\n            );\n        }\n    }\n}\n",
  "sourcePath": "/home/mayank/crypto-chess/contracts/Chess.sol",
  "compiler": {
    "name": "solc",
    "version": "0.8.10+commit.fc410830.Emscripten.clang"
  },
  "schemaVersion": "3.4.3",
  "updatedAt": "2021-12-12T13:13:36.446Z",
  "networkType": "ethereum",
  "devdoc": {
    "kind": "dev",
    "methods": {},
    "version": 1
  },
  "userdoc": {
    "kind": "user",
    "methods": {},
    "version": 1
  }
}