{
  "contractName": "Chess",
  "abi": [
    {
      "inputs": [],
      "stateMutability": "nonpayable",
      "type": "constructor"
    },
    {
      "inputs": [
        {
          "internalType": "uint256",
          "name": "",
          "type": "uint256"
        }
      ],
      "name": "BetInfo",
      "outputs": [
        {
          "internalType": "uint256",
          "name": "amountPlayer1",
          "type": "uint256"
        },
        {
          "internalType": "uint256",
          "name": "amountPlayer2",
          "type": "uint256"
        }
      ],
      "stateMutability": "view",
      "type": "function",
      "constant": true
    },
    {
      "inputs": [
        {
          "internalType": "uint256",
          "name": "",
          "type": "uint256"
        }
      ],
      "name": "GameInfo",
      "outputs": [
        {
          "internalType": "address",
          "name": "player1",
          "type": "address"
        },
        {
          "internalType": "address",
          "name": "player2",
          "type": "address"
        },
        {
          "internalType": "address payable",
          "name": "winner",
          "type": "address"
        },
        {
          "internalType": "uint256",
          "name": "amountBet",
          "type": "uint256"
        },
        {
          "internalType": "bool",
          "name": "finished",
          "type": "bool"
        }
      ],
      "stateMutability": "view",
      "type": "function",
      "constant": true
    },
    {
      "inputs": [
        {
          "internalType": "address",
          "name": "",
          "type": "address"
        },
        {
          "internalType": "uint256",
          "name": "",
          "type": "uint256"
        }
      ],
      "name": "GamesPlayed",
      "outputs": [
        {
          "internalType": "uint256",
          "name": "",
          "type": "uint256"
        }
      ],
      "stateMutability": "view",
      "type": "function",
      "constant": true
    },
    {
      "inputs": [],
      "name": "gameID",
      "outputs": [
        {
          "internalType": "uint256",
          "name": "",
          "type": "uint256"
        }
      ],
      "stateMutability": "view",
      "type": "function",
      "constant": true
    },
    {
      "inputs": [],
      "name": "owner",
      "outputs": [
        {
          "internalType": "address",
          "name": "",
          "type": "address"
        }
      ],
      "stateMutability": "view",
      "type": "function",
      "constant": true
    },
    {
      "inputs": [],
      "name": "newGame",
      "outputs": [],
      "stateMutability": "payable",
      "type": "function",
      "payable": true
    },
    {
      "inputs": [
        {
          "internalType": "address",
          "name": "player",
          "type": "address"
        }
      ],
      "name": "getGameID",
      "outputs": [
        {
          "internalType": "uint256",
          "name": "",
          "type": "uint256"
        }
      ],
      "stateMutability": "view",
      "type": "function",
      "constant": true
    },
    {
      "inputs": [
        {
          "internalType": "uint256",
          "name": "game",
          "type": "uint256"
        }
      ],
      "name": "getStake",
      "outputs": [
        {
          "internalType": "uint256",
          "name": "",
          "type": "uint256"
        }
      ],
      "stateMutability": "view",
      "type": "function",
      "constant": true
    },
    {
      "inputs": [
        {
          "internalType": "uint256",
          "name": "game",
          "type": "uint256"
        }
      ],
      "name": "joinGame",
      "outputs": [],
      "stateMutability": "payable",
      "type": "function",
      "payable": true
    },
    {
      "inputs": [
        {
          "internalType": "uint256",
          "name": "game",
          "type": "uint256"
        },
        {
          "internalType": "address",
          "name": "winner",
          "type": "address"
        }
      ],
      "name": "declareWinner",
      "outputs": [],
      "stateMutability": "nonpayable",
      "type": "function"
    },
    {
      "inputs": [
        {
          "internalType": "address",
          "name": "user",
          "type": "address"
        }
      ],
      "name": "getGames",
      "outputs": [
        {
          "internalType": "uint256[]",
          "name": "",
          "type": "uint256[]"
        }
      ],
      "stateMutability": "view",
      "type": "function",
      "constant": true
    },
    {
      "inputs": [],
      "name": "getLatestGameId",
      "outputs": [
        {
          "internalType": "uint256",
          "name": "",
          "type": "uint256"
        }
      ],
      "stateMutability": "view",
      "type": "function",
      "constant": true
    },
    {
      "inputs": [
        {
          "internalType": "uint256",
          "name": "game",
          "type": "uint256"
        }
      ],
      "name": "getGame",
      "outputs": [
        {
          "components": [
            {
              "internalType": "address",
              "name": "player1",
              "type": "address"
            },
            {
              "internalType": "address",
              "name": "player2",
              "type": "address"
            },
            {
              "internalType": "address payable",
              "name": "winner",
              "type": "address"
            },
            {
              "internalType": "uint256",
              "name": "amountBet",
              "type": "uint256"
            },
            {
              "internalType": "bool",
              "name": "finished",
              "type": "bool"
            }
          ],
          "internalType": "struct Chess.Game",
          "name": "",
          "type": "tuple"
        }
      ],
      "stateMutability": "view",
      "type": "function",
      "constant": true
    },
    {
      "inputs": [
        {
          "internalType": "uint256",
          "name": "game",
          "type": "uint256"
        }
      ],
      "name": "getBet",
      "outputs": [
        {
          "components": [
            {
              "internalType": "uint256",
              "name": "amountPlayer1",
              "type": "uint256"
            },
            {
              "internalType": "uint256",
              "name": "amountPlayer2",
              "type": "uint256"
            },
            {
              "components": [
                {
                  "internalType": "uint256",
                  "name": "amountBet",
                  "type": "uint256"
                },
                {
                  "internalType": "address payable",
                  "name": "betterAddress",
                  "type": "address"
                },
                {
                  "internalType": "address",
                  "name": "betSide",
                  "type": "address"
                }
              ],
              "internalType": "struct Chess.Better[]",
              "name": "betters",
              "type": "tuple[]"
            }
          ],
          "internalType": "struct Chess.Bet",
          "name": "",
          "type": "tuple"
        }
      ],
      "stateMutability": "view",
      "type": "function",
      "constant": true
    },
    {
      "inputs": [
        {
          "internalType": "address",
          "name": "side",
          "type": "address"
        },
        {
          "internalType": "uint256",
          "name": "game",
          "type": "uint256"
        }
      ],
      "name": "bet",
      "outputs": [],
      "stateMutability": "payable",
      "type": "function",
      "payable": true
    }
  ],
  "bytecode": "0x608060405234801561001057600080fd5b5033600160006101000a81548173ffffffffffffffffffffffffffffffffffffffff021916908373ffffffffffffffffffffffffffffffffffffffff1602179055506106206000819055506121638061006a6000396000f3fe6080604052600436106100e85760003560e01c8063a2f77bcc1161008a578063da19537f11610059578063da19537f14610328578063e374b09714610365578063efaa55a01461038e578063f846cabc146103aa576100e8565b8063a2f77bcc14610246578063a507fa4114610283578063c7dd4b4f146102c0578063ce325bf8146102eb576100e8565b806339053ca6116100c657806339053ca6146101a95780636632efbb146101d45780637d03f5f3146102115780638da5cb5b1461021b576100e8565b8063061e494f146100ed5780630696d04d1461012a57806319c37afc14610168575b600080fd5b3480156100f957600080fd5b50610114600480360381019061010f91906117de565b6103c6565b60405161012191906119bd565b60405180910390f35b34801561013657600080fd5b50610151600480360381019061014c91906117de565b610528565b60405161015f9291906119ee565b60405180910390f35b34801561017457600080fd5b5061018f600480360381019061018a91906117de565b61054c565b6040516101a0959493929190611a50565b60405180910390f35b3480156101b557600080fd5b506101be6105ef565b6040516101cb9190611aa3565b60405180910390f35b3480156101e057600080fd5b506101fb60048036038101906101f69190611aea565b6105f8565b6040516102089190611bc6565b60405180910390f35b610219610695565b005b34801561022757600080fd5b50610230610800565b60405161023d9190611be8565b60405180910390f35b34801561025257600080fd5b5061026d600480360381019061026891906117de565b610826565b60405161027a9190611c7a565b60405180910390f35b34801561028f57600080fd5b506102aa60048036038101906102a59190611aea565b610986565b6040516102b79190611aa3565b60405180910390f35b3480156102cc57600080fd5b506102d5610a39565b6040516102e29190611aa3565b60405180910390f35b3480156102f757600080fd5b50610312600480360381019061030d91906117de565b610a3f565b60405161031f9190611aa3565b60405180910390f35b34801561033457600080fd5b5061034f600480360381019061034a9190611c95565b610a5f565b60405161035c9190611aa3565b60405180910390f35b34801561037157600080fd5b5061038c60048036038101906103879190611cd5565b610a90565b005b6103a860048036038101906103a391906117de565b610e22565b005b6103c460048036038101906103bf9190611c95565b610f3a565b005b6103ce6116c2565b6103d66116c2565b60046000848152602001908152602001600020604051806060016040529081600082015481526020016001820154815260200160028201805480602002602001604051908101604052809291908181526020016000905b828210156105155783829060005260206000209060030201604051806060016040529081600082015481526020016001820160009054906101000a900473ffffffffffffffffffffffffffffffffffffffff1673ffffffffffffffffffffffffffffffffffffffff1673ffffffffffffffffffffffffffffffffffffffff1681526020016002820160009054906101000a900473ffffffffffffffffffffffffffffffffffffffff1673ffffffffffffffffffffffffffffffffffffffff1673ffffffffffffffffffffffffffffffffffffffff16815250508152602001906001019061042d565b5050505081525050905080915050919050565b60046020528060005260406000206000915090508060000154908060010154905082565b60026020528060005260406000206000915090508060000160009054906101000a900473ffffffffffffffffffffffffffffffffffffffff16908060010160009054906101000a900473ffffffffffffffffffffffffffffffffffffffff16908060020160009054906101000a900473ffffffffffffffffffffffffffffffffffffffff16908060030154908060040160009054906101000a900460ff16905085565b60008054905090565b60606000600360008473ffffffffffffffffffffffffffffffffffffffff1673ffffffffffffffffffffffffffffffffffffffff16815260200190815260200160002080548060200260200160405190810160405280929190818152602001828054801561068557602002820191906000526020600020905b815481526020019060010190808311610671575b5050505050905080915050919050565b600034116106d8576040517f08c379a00000000000000000000000000000000000000000000000000000000081526004016106cf90611d72565b60405180910390fd5b33600260008054815260200190815260200160002060000160006101000a81548173ffffffffffffffffffffffffffffffffffffffff021916908373ffffffffffffffffffffffffffffffffffffffff160217905550346002600080548152602001908152602001600020600301819055506000600260008054815260200190815260200160002060040160006101000a81548160ff021916908315150217905550600080549050600360003373ffffffffffffffffffffffffffffffffffffffff1673ffffffffffffffffffffffffffffffffffffffff1681526020019081526020016000208190806001815401808255809150506001900390600052602060002001600090919091909150556000808154809291906107f890611dc1565b919050555050565b600160009054906101000a900473ffffffffffffffffffffffffffffffffffffffff1681565b61082e6116e3565b6108366116e3565b600260008481526020019081526020016000206040518060a00160405290816000820160009054906101000a900473ffffffffffffffffffffffffffffffffffffffff1673ffffffffffffffffffffffffffffffffffffffff1673ffffffffffffffffffffffffffffffffffffffff1681526020016001820160009054906101000a900473ffffffffffffffffffffffffffffffffffffffff1673ffffffffffffffffffffffffffffffffffffffff1673ffffffffffffffffffffffffffffffffffffffff1681526020016002820160009054906101000a900473ffffffffffffffffffffffffffffffffffffffff1673ffffffffffffffffffffffffffffffffffffffff1673ffffffffffffffffffffffffffffffffffffffff168152602001600382015481526020016004820160009054906101000a900460ff161515151581525050905080915050919050565b6000600360008373ffffffffffffffffffffffffffffffffffffffff1673ffffffffffffffffffffffffffffffffffffffff1681526020019081526020016000206001600360008573ffffffffffffffffffffffffffffffffffffffff1673ffffffffffffffffffffffffffffffffffffffff16815260200190815260200160002080549050610a169190611e0a565b81548110610a2757610a26611e3e565b5b90600052602060002001549050919050565b60005481565b600060026000838152602001908152602001600020600301549050919050565b60036020528160005260406000208181548110610a7b57600080fd5b90600052602060002001600091509150505481565b6002600083815260200190815260200160002060040160009054906101000a900460ff1615610abe57600080fd5b600060026000848152602001908152602001600020600301541415610b18576040517f08c379a0000000000000000000000000000000000000000000000000000000008152600401610b0f90611eb9565b60405180910390fd5b600073ffffffffffffffffffffffffffffffffffffffff166002600084815260200190815260200160002060020160009054906101000a900473ffffffffffffffffffffffffffffffffffffffff1673ffffffffffffffffffffffffffffffffffffffff1614610b8757600080fd5b600160009054906101000a900473ffffffffffffffffffffffffffffffffffffffff1673ffffffffffffffffffffffffffffffffffffffff163373ffffffffffffffffffffffffffffffffffffffff1614610be157600080fd5b6002600083815260200190815260200160002060000160009054906101000a900473ffffffffffffffffffffffffffffffffffffffff1673ffffffffffffffffffffffffffffffffffffffff168173ffffffffffffffffffffffffffffffffffffffff161480610cb257506002600083815260200190815260200160002060010160009054906101000a900473ffffffffffffffffffffffffffffffffffffffff1673ffffffffffffffffffffffffffffffffffffffff168173ffffffffffffffffffffffffffffffffffffffff16145b610cf1576040517f08c379a0000000000000000000000000000000000000000000000000000000008152600401610ce890611f25565b60405180910390fd5b806002600084815260200190815260200160002060020160006101000a81548173ffffffffffffffffffffffffffffffffffffffff021916908373ffffffffffffffffffffffffffffffffffffffff1602179055506002600083815260200190815260200160002060020160009054906101000a900473ffffffffffffffffffffffffffffffffffffffff1673ffffffffffffffffffffffffffffffffffffffff166108fc60026000858152602001908152602001600020600301546002610db99190611f45565b9081150290604051600060405180830381858888f19350505050158015610de4573d6000803e3d6000fd5b50610def82826112cf565b60016002600084815260200190815260200160002060040160006101000a81548160ff0219169083151502179055505050565b600060026000838152602001908152602001600020600301541415610e7c576040517f08c379a0000000000000000000000000000000000000000000000000000000008152600401610e7390611eb9565b60405180910390fd5b600360003373ffffffffffffffffffffffffffffffffffffffff1673ffffffffffffffffffffffffffffffffffffffff168152602001908152602001600020819080600181540180825580915050600190039060005260206000200160009091909190915055336002600083815260200190815260200160002060010160006101000a81548173ffffffffffffffffffffffffffffffffffffffff021916908373ffffffffffffffffffffffffffffffffffffffff16021790555050565b600060026000838152602001908152602001600020600301541415610f94576040517f08c379a0000000000000000000000000000000000000000000000000000000008152600401610f8b90611feb565b60405180910390fd5b6002600082815260200190815260200160002060000160009054906101000a900473ffffffffffffffffffffffffffffffffffffffff1673ffffffffffffffffffffffffffffffffffffffff168273ffffffffffffffffffffffffffffffffffffffff16148061106557506002600082815260200190815260200160002060010160009054906101000a900473ffffffffffffffffffffffffffffffffffffffff1673ffffffffffffffffffffffffffffffffffffffff168273ffffffffffffffffffffffffffffffffffffffff16145b6110a4576040517f08c379a000000000000000000000000000000000000000000000000000000000815260040161109b90612057565b60405180910390fd5b6002600082815260200190815260200160002060000160009054906101000a900473ffffffffffffffffffffffffffffffffffffffff1673ffffffffffffffffffffffffffffffffffffffff168273ffffffffffffffffffffffffffffffffffffffff16141561114057346004600083815260200190815260200160002060000160008282546111349190612077565b9250508190555061116e565b346004600083815260200190815260200160002060010160008282546111669190612077565b925050819055505b611176611756565b3481600001818152505033816020019073ffffffffffffffffffffffffffffffffffffffff16908173ffffffffffffffffffffffffffffffffffffffff168152505082816040019073ffffffffffffffffffffffffffffffffffffffff16908173ffffffffffffffffffffffffffffffffffffffff1681525050600460008381526020019081526020016000206002018190806001815401808255809150506001900390600052602060002090600302016000909190919091506000820151816000015560208201518160010160006101000a81548173ffffffffffffffffffffffffffffffffffffffff021916908373ffffffffffffffffffffffffffffffffffffffff16021790555060408201518160020160006101000a81548173ffffffffffffffffffffffffffffffffffffffff021916908373ffffffffffffffffffffffffffffffffffffffff1602179055505050505050565b6000806000606060008086905060005b600460008a8152602001908152602001600020600201805490508110156114c4578173ffffffffffffffffffffffffffffffffffffffff16600460008b8152602001908152602001600020600201828154811061133f5761133e611e3e565b5b906000526020600020906003020160020160009054906101000a900473ffffffffffffffffffffffffffffffffffffffff1673ffffffffffffffffffffffffffffffffffffffff1614156114b157600460008a815260200190815260200160002060020181815481106113b5576113b4611e3e565b5b9060005260206000209060030201604051806060016040529081600082015481526020016001820160009054906101000a900473ffffffffffffffffffffffffffffffffffffffff1673ffffffffffffffffffffffffffffffffffffffff1673ffffffffffffffffffffffffffffffffffffffff1681526020016002820160009054906101000a900473ffffffffffffffffffffffffffffffffffffffff1673ffffffffffffffffffffffffffffffffffffffff1673ffffffffffffffffffffffffffffffffffffffff168152505084848151811061149757611496611e3e565b5b602002602001018190525082806114ad90611dc1565b9350505b80806114bc90611dc1565b9150506112df565b506002600089815260200190815260200160002060000160009054906101000a900473ffffffffffffffffffffffffffffffffffffffff1673ffffffffffffffffffffffffffffffffffffffff168173ffffffffffffffffffffffffffffffffffffffff161415611566576004600089815260200190815260200160002060000154945060046000898152602001908152602001600020600101549350611599565b60046000898152602001908152602001600020600101549450600460008981526020019081526020016000206000015493505b600084866115a79190612077565b905060005b838110156116b657600073ffffffffffffffffffffffffffffffffffffffff168582815181106115df576115de611e3e565b5b60200260200101516020015173ffffffffffffffffffffffffffffffffffffffff16146116a35784818151811061161957611618611e3e565b5b602002602001015160000151975084818151811061163a57611639611e3e565b5b60200260200101516020015173ffffffffffffffffffffffffffffffffffffffff166108fc89898561166c91906120fc565b6116769190611f45565b9081150290604051600060405180830381858888f193505050501580156116a1573d6000803e3d6000fd5b505b80806116ae90611dc1565b9150506115ac565b50505050505050505050565b60405180606001604052806000815260200160008152602001606081525090565b6040518060a00160405280600073ffffffffffffffffffffffffffffffffffffffff168152602001600073ffffffffffffffffffffffffffffffffffffffff168152602001600073ffffffffffffffffffffffffffffffffffffffff168152602001600081526020016000151581525090565b604051806060016040528060008152602001600073ffffffffffffffffffffffffffffffffffffffff168152602001600073ffffffffffffffffffffffffffffffffffffffff1681525090565b600080fd5b6000819050919050565b6117bb816117a8565b81146117c657600080fd5b50565b6000813590506117d8816117b2565b92915050565b6000602082840312156117f4576117f36117a3565b5b6000611802848285016117c9565b91505092915050565b611814816117a8565b82525050565b600081519050919050565b600082825260208201905092915050565b6000819050602082019050919050565b600073ffffffffffffffffffffffffffffffffffffffff82169050919050565b600061187182611846565b9050919050565b61188181611866565b82525050565b600061189282611846565b9050919050565b6118a281611887565b82525050565b6060820160008201516118be600085018261180b565b5060208201516118d16020850182611878565b5060408201516118e46040850182611899565b50505050565b60006118f683836118a8565b60608301905092915050565b6000602082019050919050565b600061191a8261181a565b6119248185611825565b935061192f83611836565b8060005b8381101561196057815161194788826118ea565b975061195283611902565b925050600181019050611933565b5085935050505092915050565b6000606083016000830151611985600086018261180b565b506020830151611998602086018261180b565b50604083015184820360408601526119b0828261190f565b9150508091505092915050565b600060208201905081810360008301526119d7818461196d565b905092915050565b6119e8816117a8565b82525050565b6000604082019050611a0360008301856119df565b611a1060208301846119df565b9392505050565b611a2081611887565b82525050565b611a2f81611866565b82525050565b60008115159050919050565b611a4a81611a35565b82525050565b600060a082019050611a656000830188611a17565b611a726020830187611a17565b611a7f6040830186611a26565b611a8c60608301856119df565b611a996080830184611a41565b9695505050505050565b6000602082019050611ab860008301846119df565b92915050565b611ac781611887565b8114611ad257600080fd5b50565b600081359050611ae481611abe565b92915050565b600060208284031215611b0057611aff6117a3565b5b6000611b0e84828501611ad5565b91505092915050565b600081519050919050565b600082825260208201905092915050565b6000819050602082019050919050565b6000611b4f838361180b565b60208301905092915050565b6000602082019050919050565b6000611b7382611b17565b611b7d8185611b22565b9350611b8883611b33565b8060005b83811015611bb9578151611ba08882611b43565b9750611bab83611b5b565b925050600181019050611b8c565b5085935050505092915050565b60006020820190508181036000830152611be08184611b68565b905092915050565b6000602082019050611bfd6000830184611a17565b92915050565b611c0c81611a35565b82525050565b60a082016000820151611c286000850182611899565b506020820151611c3b6020850182611899565b506040820151611c4e6040850182611878565b506060820151611c61606085018261180b565b506080820151611c746080850182611c03565b50505050565b600060a082019050611c8f6000830184611c12565b92915050565b60008060408385031215611cac57611cab6117a3565b5b6000611cba85828601611ad5565b9250506020611ccb858286016117c9565b9150509250929050565b60008060408385031215611cec57611ceb6117a3565b5b6000611cfa858286016117c9565b9250506020611d0b85828601611ad5565b9150509250929050565b600082825260208201905092915050565b7f496e76616c69642042657420416d6f756e740000000000000000000000000000600082015250565b6000611d5c601283611d15565b9150611d6782611d26565b602082019050919050565b60006020820190508181036000830152611d8b81611d4f565b9050919050565b7f4e487b7100000000000000000000000000000000000000000000000000000000600052601160045260246000fd5b6000611dcc826117a8565b91507fffffffffffffffffffffffffffffffffffffffffffffffffffffffffffffffff821415611dff57611dfe611d92565b5b600182019050919050565b6000611e15826117a8565b9150611e20836117a8565b925082821015611e3357611e32611d92565b5b828203905092915050565b7f4e487b7100000000000000000000000000000000000000000000000000000000600052603260045260246000fd5b7f47616d6520646f6573206e6f7420657869737400000000000000000000000000600082015250565b6000611ea3601383611d15565b9150611eae82611e6d565b602082019050919050565b60006020820190508181036000830152611ed281611e96565b9050919050565b7f57696e6e6572206e6f742056616c696400000000000000000000000000000000600082015250565b6000611f0f601083611d15565b9150611f1a82611ed9565b602082019050919050565b60006020820190508181036000830152611f3e81611f02565b9050919050565b6000611f50826117a8565b9150611f5b836117a8565b9250817fffffffffffffffffffffffffffffffffffffffffffffffffffffffffffffffff0483118215151615611f9457611f93611d92565b5b828202905092915050565b7f47616d6520646f6573206e6f7420657869737473000000000000000000000000600082015250565b6000611fd5601483611d15565b9150611fe082611f9f565b602082019050919050565b6000602082019050818103600083015261200481611fc8565b9050919050565b7f496e76616c696420426574000000000000000000000000000000000000000000600082015250565b6000612041600b83611d15565b915061204c8261200b565b602082019050919050565b6000602082019050818103600083015261207081612034565b9050919050565b6000612082826117a8565b915061208d836117a8565b9250827fffffffffffffffffffffffffffffffffffffffffffffffffffffffffffffffff038211156120c2576120c1611d92565b5b828201905092915050565b7f4e487b7100000000000000000000000000000000000000000000000000000000600052601260045260246000fd5b6000612107826117a8565b9150612112836117a8565b925082612122576121216120cd565b5b82820490509291505056fea2646970667358221220681afc96c4660d932beda06afe58b758a10ccc1d9d21b8737b9d90aedcced7fd64736f6c634300080a0033",
  "immutableReferences": {},
  "source": "pragma solidity >=0.4.22 <0.9.0;\n\ncontract Chess {\n    uint256 public gameID;\n    address public owner;\n\n    struct Game {\n        address player1;\n        address player2;\n        address payable winner;\n        uint256 amountBet;\n        bool finished;\n    }\n\n    struct Better {\n        uint256 amountBet;\n        address payable betterAddress;\n        address betSide;\n    }\n\n    struct Bet {\n        uint256 amountPlayer1;\n        uint256 amountPlayer2;\n        Better[] betters;\n    }\n\n    mapping(uint256 => Game) public GameInfo;\n    mapping(address => uint256[]) public GamesPlayed;\n    mapping(uint256 => Bet) public BetInfo;\n\n    constructor() {\n        owner = msg.sender;\n        gameID = 1568;\n    }\n\n    function newGame() public payable {\n        require(msg.value > 0, \"Invalid Bet Amount\");\n        GameInfo[gameID].player1 = msg.sender;\n        GameInfo[gameID].amountBet = msg.value;\n        GameInfo[gameID].finished = false;\n        uint256 game = gameID;\n        GamesPlayed[msg.sender].push(game);\n        gameID++;\n    }\n\n    function getGameID(address player) public view returns (uint256) {\n        return GamesPlayed[player][GamesPlayed[player].length - 1];\n    }\n\n    function getStake(uint256 game) public view returns (uint256) {\n        return GameInfo[game].amountBet;\n    }\n\n    function joinGame(uint256 game) public payable {\n        require(GameInfo[game].amountBet != 0, \"Game does not exist\");\n        GamesPlayed[msg.sender].push(game);\n        GameInfo[game].player2 = msg.sender;\n    }\n\n    function declareWinner(uint256 game, address winner) public {\n        require(!GameInfo[game].finished);\n        require(GameInfo[game].amountBet != 0, \"Game does not exist\");\n        require(GameInfo[game].winner == address(0));\n        require(msg.sender == owner);\n        require(\n            winner == GameInfo[game].player1 ||\n                winner == GameInfo[game].player2,\n            \"Winner not Valid\"\n        );\n        GameInfo[game].winner = payable(winner);\n        GameInfo[game].winner.transfer(2 * (GameInfo[game].amountBet));\n        settleBet(game, winner);\n        GameInfo[game].finished = true;\n    }\n\n    function getGames(address user) public view returns (uint256[] memory) {\n        uint256[] memory games = GamesPlayed[user];\n        return games;\n    }\n\n    function getLatestGameId() public view returns (uint256) {\n        return gameID;\n    }\n\n    function getGame(uint256 game) public view returns (Game memory) {\n        Game memory requestedGame;\n        requestedGame = GameInfo[game];\n        return requestedGame;\n    }\n\n    function getBet(uint256 game) public view returns (Bet memory) {\n        Bet memory requestedGame;\n        requestedGame = BetInfo[game];\n        return requestedGame;\n    }\n\n    function checkPlayer(address player, uint256 game)\n        private\n        view\n        returns (bool)\n    {\n        for (uint256 i = 0; i < BetInfo[game].betters.length; i++) {\n            if (BetInfo[game].betters[i].betterAddress == player) return false;\n        }\n        return true;\n    }\n\n    function bet(address side, uint256 game) public payable {\n        require(GameInfo[game].amountBet != 0, \"Game does not exists\");\n        require(\n            side == GameInfo[game].player1 || side == GameInfo[game].player2,\n            \"Invalid Bet\"\n        );\n        //require(checkPlayer(msg.sender, game), \"Bet already Made\");\n        if (side == GameInfo[game].player1) {\n            BetInfo[game].amountPlayer1 += msg.value;\n        } else {\n            BetInfo[game].amountPlayer2 += msg.value;\n        }\n        Better memory user;\n        user.amountBet = msg.value;\n        user.betterAddress = payable(msg.sender);\n        user.betSide = side;\n\n        BetInfo[game].betters.push(user);\n    }\n\n    function settleBet(uint256 game, address winner) private {\n        uint256 transfer;\n        uint256 winAmount;\n        uint256 loseAmount;\n        Better[] memory winners;\n        uint256 count = 0;\n        address winnerSide = winner;\n        for (uint256 i = 0; i < BetInfo[game].betters.length; i++) {\n            if (BetInfo[game].betters[i].betSide == winnerSide) {\n                winners[count] = BetInfo[game].betters[i];\n                count++;\n            }\n        }\n        if (winnerSide == GameInfo[game].player1) {\n            winAmount = BetInfo[game].amountPlayer1;\n            loseAmount = BetInfo[game].amountPlayer2;\n        } else {\n            winAmount = BetInfo[game].amountPlayer2;\n            loseAmount = BetInfo[game].amountPlayer1;\n        }\n        uint256 totalAmount = winAmount + loseAmount;\n        for (uint256 j = 0; j < count; j++) {\n            if (winners[j].betterAddress != address(0)) {\n                transfer = winners[j].amountBet;\n                winners[j].betterAddress.transfer(\n                    (totalAmount / winAmount) * transfer\n                );\n            }\n        }\n    }\n}\n",
  "sourcePath": "/home/mayank/crypto-chess/contracts/Chess.sol",
  "compiler": {
    "name": "solc",
    "version": "0.8.10+commit.fc410830.Emscripten.clang"
  },
  "schemaVersion": "3.4.3",
  "updatedAt": "2021-12-14T16:52:48.593Z",
  "networkType": "ethereum",
  "devdoc": {
    "kind": "dev",
    "methods": {},
    "version": 1
  },
  "userdoc": {
    "kind": "user",
    "methods": {},
    "version": 1
  }
}