{
  "contractName": "Chess",
  "abi": [
    {
      "inputs": [],
      "stateMutability": "nonpayable",
      "type": "constructor"
    },
    {
      "inputs": [
        {
          "internalType": "uint256",
          "name": "",
          "type": "uint256"
        }
      ],
      "name": "BetInfo",
      "outputs": [
        {
          "internalType": "uint256",
          "name": "amountPlayer1",
          "type": "uint256"
        },
        {
          "internalType": "uint256",
          "name": "amountPlayer2",
          "type": "uint256"
        }
      ],
      "stateMutability": "view",
      "type": "function",
      "constant": true
    },
    {
      "inputs": [
        {
          "internalType": "uint256",
          "name": "",
          "type": "uint256"
        }
      ],
      "name": "GameInfo",
      "outputs": [
        {
          "internalType": "address",
          "name": "player1",
          "type": "address"
        },
        {
          "internalType": "address",
          "name": "player2",
          "type": "address"
        },
        {
          "internalType": "address payable",
          "name": "winner",
          "type": "address"
        },
        {
          "internalType": "uint256",
          "name": "amountBet",
          "type": "uint256"
        },
        {
          "internalType": "bool",
          "name": "finished",
          "type": "bool"
        }
      ],
      "stateMutability": "view",
      "type": "function",
      "constant": true
    },
    {
      "inputs": [
        {
          "internalType": "address",
          "name": "",
          "type": "address"
        },
        {
          "internalType": "uint256",
          "name": "",
          "type": "uint256"
        }
      ],
      "name": "GamesPlayed",
      "outputs": [
        {
          "internalType": "uint256",
          "name": "",
          "type": "uint256"
        }
      ],
      "stateMutability": "view",
      "type": "function",
      "constant": true
    },
    {
      "inputs": [],
      "name": "gameID",
      "outputs": [
        {
          "internalType": "uint256",
          "name": "",
          "type": "uint256"
        }
      ],
      "stateMutability": "view",
      "type": "function",
      "constant": true
    },
    {
      "inputs": [],
      "name": "owner",
      "outputs": [
        {
          "internalType": "address",
          "name": "",
          "type": "address"
        }
      ],
      "stateMutability": "view",
      "type": "function",
      "constant": true
    },
    {
      "inputs": [],
      "name": "newGame",
      "outputs": [],
      "stateMutability": "payable",
      "type": "function",
      "payable": true
    },
    {
      "inputs": [
        {
          "internalType": "address",
          "name": "player",
          "type": "address"
        }
      ],
      "name": "getGameID",
      "outputs": [
        {
          "internalType": "uint256",
          "name": "",
          "type": "uint256"
        }
      ],
      "stateMutability": "view",
      "type": "function",
      "constant": true
    },
    {
      "inputs": [
        {
          "internalType": "uint256",
          "name": "game",
          "type": "uint256"
        }
      ],
      "name": "getStake",
      "outputs": [
        {
          "internalType": "uint256",
          "name": "",
          "type": "uint256"
        }
      ],
      "stateMutability": "view",
      "type": "function",
      "constant": true
    },
    {
      "inputs": [
        {
          "internalType": "uint256",
          "name": "game",
          "type": "uint256"
        }
      ],
      "name": "joinGame",
      "outputs": [],
      "stateMutability": "payable",
      "type": "function",
      "payable": true
    },
    {
      "inputs": [
        {
          "internalType": "uint256",
          "name": "game",
          "type": "uint256"
        },
        {
          "internalType": "address",
          "name": "winner",
          "type": "address"
        }
      ],
      "name": "declareWinner",
      "outputs": [],
      "stateMutability": "nonpayable",
      "type": "function"
    },
    {
      "inputs": [
        {
          "internalType": "address",
          "name": "user",
          "type": "address"
        }
      ],
      "name": "getGames",
      "outputs": [
        {
          "components": [
            {
              "internalType": "address",
              "name": "player1",
              "type": "address"
            },
            {
              "internalType": "address",
              "name": "player2",
              "type": "address"
            },
            {
              "internalType": "address payable",
              "name": "winner",
              "type": "address"
            },
            {
              "internalType": "uint256",
              "name": "amountBet",
              "type": "uint256"
            },
            {
              "internalType": "bool",
              "name": "finished",
              "type": "bool"
            }
          ],
          "internalType": "struct Chess.Game[]",
          "name": "",
          "type": "tuple[]"
        }
      ],
      "stateMutability": "view",
      "type": "function",
      "constant": true
    },
    {
      "inputs": [
        {
          "internalType": "address",
          "name": "side",
          "type": "address"
        },
        {
          "internalType": "uint256",
          "name": "game",
          "type": "uint256"
        }
      ],
      "name": "bet",
      "outputs": [],
      "stateMutability": "payable",
      "type": "function",
      "payable": true
    }
  ],
  "bytecode": "0x608060405234801561001057600080fd5b5033600160006101000a81548173ffffffffffffffffffffffffffffffffffffffff021916908373ffffffffffffffffffffffffffffffffffffffff160217905550610620600081905550611ed58061006a6000396000f3fe6080604052600436106100a75760003560e01c8063c7dd4b4f11610064578063c7dd4b4f146101da578063ce325bf814610205578063da19537f14610242578063e374b0971461027f578063efaa55a0146102a8578063f846cabc146102c4576100a7565b80630696d04d146100ac57806319c37afc146100ea5780636632efbb1461012b5780637d03f5f3146101685780638da5cb5b14610172578063a507fa411461019d575b600080fd5b3480156100b857600080fd5b506100d360048036038101906100ce9190611662565b6102e0565b6040516100e192919061169e565b60405180910390f35b3480156100f657600080fd5b50610111600480360381019061010c9190611662565b610304565b604051610122959493929190611744565b60405180910390f35b34801561013757600080fd5b50610152600480360381019061014d91906117c3565b6103a7565b60405161015f9190611943565b60405180910390f35b6101706105d2565b005b34801561017e57600080fd5b5061018761073d565b6040516101949190611965565b60405180910390f35b3480156101a957600080fd5b506101c460048036038101906101bf91906117c3565b610763565b6040516101d19190611980565b60405180910390f35b3480156101e657600080fd5b506101ef610816565b6040516101fc9190611980565b60405180910390f35b34801561021157600080fd5b5061022c60048036038101906102279190611662565b61081c565b6040516102399190611980565b60405180910390f35b34801561024e57600080fd5b506102696004803603810190610264919061199b565b61083c565b6040516102769190611980565b60405180910390f35b34801561028b57600080fd5b506102a660048036038101906102a191906119db565b61086d565b005b6102c260048036038101906102bd9190611662565b610bfe565b005b6102de60048036038101906102d9919061199b565b610d16565b005b60046020528060005260406000206000915090508060000154908060010154905082565b60026020528060005260406000206000915090508060000160009054906101000a900473ffffffffffffffffffffffffffffffffffffffff16908060010160009054906101000a900473ffffffffffffffffffffffffffffffffffffffff16908060020160009054906101000a900473ffffffffffffffffffffffffffffffffffffffff16908060030154908060040160009054906101000a900460ff16905085565b60608060005b600360008573ffffffffffffffffffffffffffffffffffffffff1673ffffffffffffffffffffffffffffffffffffffff168152602001908152602001600020805490508110156105c85760026000600360008773ffffffffffffffffffffffffffffffffffffffff1673ffffffffffffffffffffffffffffffffffffffff168152602001908152602001600020838154811061044c5761044b611a1b565b5b906000526020600020015481526020019081526020016000206040518060a00160405290816000820160009054906101000a900473ffffffffffffffffffffffffffffffffffffffff1673ffffffffffffffffffffffffffffffffffffffff1673ffffffffffffffffffffffffffffffffffffffff1681526020016001820160009054906101000a900473ffffffffffffffffffffffffffffffffffffffff1673ffffffffffffffffffffffffffffffffffffffff1673ffffffffffffffffffffffffffffffffffffffff1681526020016002820160009054906101000a900473ffffffffffffffffffffffffffffffffffffffff1673ffffffffffffffffffffffffffffffffffffffff1673ffffffffffffffffffffffffffffffffffffffff168152602001600382015481526020016004820160009054906101000a900460ff1615151515815250508282815181106105aa576105a9611a1b565b5b602002602001018190525080806105c090611a79565b9150506103ad565b5080915050919050565b60003411610615576040517f08c379a000000000000000000000000000000000000000000000000000000000815260040161060c90611b1f565b60405180910390fd5b33600260008054815260200190815260200160002060000160006101000a81548173ffffffffffffffffffffffffffffffffffffffff021916908373ffffffffffffffffffffffffffffffffffffffff160217905550346002600080548152602001908152602001600020600301819055506000600260008054815260200190815260200160002060040160006101000a81548160ff021916908315150217905550600080549050600360003373ffffffffffffffffffffffffffffffffffffffff1673ffffffffffffffffffffffffffffffffffffffff16815260200190815260200160002081908060018154018082558091505060019003906000526020600020016000909190919091505560008081548092919061073590611a79565b919050555050565b600160009054906101000a900473ffffffffffffffffffffffffffffffffffffffff1681565b6000600360008373ffffffffffffffffffffffffffffffffffffffff1673ffffffffffffffffffffffffffffffffffffffff1681526020019081526020016000206001600360008573ffffffffffffffffffffffffffffffffffffffff1673ffffffffffffffffffffffffffffffffffffffff168152602001908152602001600020805490506107f39190611b3f565b8154811061080457610803611a1b565b5b90600052602060002001549050919050565b60005481565b600060026000838152602001908152602001600020600301549050919050565b6003602052816000526040600020818154811061085857600080fd5b90600052602060002001600091509150505481565b6002600083815260200190815260200160002060040160009054906101000a900460ff161561089b57600080fd5b6000600260008481526020019081526020016000206003015414156108f5576040517f08c379a00000000000000000000000000000000000000000000000000000000081526004016108ec90611bbf565b60405180910390fd5b600073ffffffffffffffffffffffffffffffffffffffff166002600084815260200190815260200160002060020160009054906101000a900473ffffffffffffffffffffffffffffffffffffffff1673ffffffffffffffffffffffffffffffffffffffff161461096457600080fd5b600160009054906101000a900473ffffffffffffffffffffffffffffffffffffffff1673ffffffffffffffffffffffffffffffffffffffff163373ffffffffffffffffffffffffffffffffffffffff16146109be57600080fd5b6002600083815260200190815260200160002060000160009054906101000a900473ffffffffffffffffffffffffffffffffffffffff1673ffffffffffffffffffffffffffffffffffffffff168173ffffffffffffffffffffffffffffffffffffffff161480610a8f57506002600083815260200190815260200160002060010160009054906101000a900473ffffffffffffffffffffffffffffffffffffffff1673ffffffffffffffffffffffffffffffffffffffff168173ffffffffffffffffffffffffffffffffffffffff16145b610ace576040517f08c379a0000000000000000000000000000000000000000000000000000000008152600401610ac590611c2b565b60405180910390fd5b806002600084815260200190815260200160002060020160006101000a81548173ffffffffffffffffffffffffffffffffffffffff021916908373ffffffffffffffffffffffffffffffffffffffff1602179055506002600083815260200190815260200160002060020160009054906101000a900473ffffffffffffffffffffffffffffffffffffffff1673ffffffffffffffffffffffffffffffffffffffff166108fc60026000858152602001908152602001600020600301546002610b969190611c4b565b9081150290604051600060405180830381858888f19350505050158015610bc1573d6000803e3d6000fd5b50610bcb826110f4565b60016002600084815260200190815260200160002060040160006101000a81548160ff0219169083151502179055505050565b600060026000838152602001908152602001600020600301541415610c58576040517f08c379a0000000000000000000000000000000000000000000000000000000008152600401610c4f90611bbf565b60405180910390fd5b600360003373ffffffffffffffffffffffffffffffffffffffff1673ffffffffffffffffffffffffffffffffffffffff168152602001908152602001600020819080600181540180825580915050600190039060005260206000200160009091909190915055336002600083815260200190815260200160002060010160006101000a81548173ffffffffffffffffffffffffffffffffffffffff021916908373ffffffffffffffffffffffffffffffffffffffff16021790555050565b600060026000838152602001908152602001600020600301541415610d70576040517f08c379a0000000000000000000000000000000000000000000000000000000008152600401610d6790611cf1565b60405180910390fd5b6002600082815260200190815260200160002060000160009054906101000a900473ffffffffffffffffffffffffffffffffffffffff1673ffffffffffffffffffffffffffffffffffffffff168273ffffffffffffffffffffffffffffffffffffffff161480610e4157506002600082815260200190815260200160002060010160009054906101000a900473ffffffffffffffffffffffffffffffffffffffff1673ffffffffffffffffffffffffffffffffffffffff168273ffffffffffffffffffffffffffffffffffffffff16145b610e80576040517f08c379a0000000000000000000000000000000000000000000000000000000008152600401610e7790611d5d565b60405180910390fd5b610e8a33826114fb565b610ec9576040517f08c379a0000000000000000000000000000000000000000000000000000000008152600401610ec090611dc9565b60405180910390fd5b6002600082815260200190815260200160002060000160009054906101000a900473ffffffffffffffffffffffffffffffffffffffff1673ffffffffffffffffffffffffffffffffffffffff168273ffffffffffffffffffffffffffffffffffffffff161415610f655734600460008381526020019081526020016000206000016000828254610f599190611de9565b92505081905550610f93565b34600460008381526020019081526020016000206001016000828254610f8b9190611de9565b925050819055505b610f9b6115da565b3481600001818152505033816020019073ffffffffffffffffffffffffffffffffffffffff16908173ffffffffffffffffffffffffffffffffffffffff168152505082816040019073ffffffffffffffffffffffffffffffffffffffff16908173ffffffffffffffffffffffffffffffffffffffff1681525050600460008381526020019081526020016000206002018190806001815401808255809150506001900390600052602060002090600302016000909190919091506000820151816000015560208201518160010160006101000a81548173ffffffffffffffffffffffffffffffffffffffff021916908373ffffffffffffffffffffffffffffffffffffffff16021790555060408201518160020160006101000a81548173ffffffffffffffffffffffffffffffffffffffff021916908373ffffffffffffffffffffffffffffffffffffffff1602179055505050505050565b600080600060606000806002600088815260200190815260200160002060020160009054906101000a900473ffffffffffffffffffffffffffffffffffffffff16905060005b600460008981526020019081526020016000206002018054905081101561131f578173ffffffffffffffffffffffffffffffffffffffff16600460008a8152602001908152602001600020600201828154811061119a57611199611a1b565b5b906000526020600020906003020160020160009054906101000a900473ffffffffffffffffffffffffffffffffffffffff1673ffffffffffffffffffffffffffffffffffffffff16141561130c576004600089815260200190815260200160002060020181815481106112105761120f611a1b565b5b9060005260206000209060030201604051806060016040529081600082015481526020016001820160009054906101000a900473ffffffffffffffffffffffffffffffffffffffff1673ffffffffffffffffffffffffffffffffffffffff1673ffffffffffffffffffffffffffffffffffffffff1681526020016002820160009054906101000a900473ffffffffffffffffffffffffffffffffffffffff1673ffffffffffffffffffffffffffffffffffffffff1673ffffffffffffffffffffffffffffffffffffffff16815250508484815181106112f2576112f1611a1b565b5b6020026020010181905250828061130890611a79565b9350505b808061131790611a79565b91505061113a565b506002600088815260200190815260200160002060000160009054906101000a900473ffffffffffffffffffffffffffffffffffffffff1673ffffffffffffffffffffffffffffffffffffffff168173ffffffffffffffffffffffffffffffffffffffff1614156113bd5760046000888152602001908152602001600020600001549450600460008881526020019081526020016000206001015493505b60005b828110156114f157600073ffffffffffffffffffffffffffffffffffffffff168482815181106113f3576113f2611a1b565b5b60200260200101516020015173ffffffffffffffffffffffffffffffffffffffff161461143c5783818151811061142d5761142c611a1b565b5b60200260200101516000015196505b83818151811061144f5761144e611a1b565b5b60200260200101516020015173ffffffffffffffffffffffffffffffffffffffff166108fc61271088612710896114869190611c4b565b6114909190611e6e565b61271061149d9190611de9565b8a6114a89190611c4b565b6114b29190611e6e565b9081150290604051600060405180830381858888f193505050501580156114dd573d6000803e3d6000fd5b5080806114e990611a79565b9150506113c0565b5050505050505050565b600080600090505b60046000848152602001908152602001600020600201805490508110156115ce578373ffffffffffffffffffffffffffffffffffffffff1660046000858152602001908152602001600020600201828154811061156357611562611a1b565b5b906000526020600020906003020160010160009054906101000a900473ffffffffffffffffffffffffffffffffffffffff1673ffffffffffffffffffffffffffffffffffffffff1614156115bb5760009150506115d4565b80806115c690611a79565b915050611503565b50600190505b92915050565b604051806060016040528060008152602001600073ffffffffffffffffffffffffffffffffffffffff168152602001600073ffffffffffffffffffffffffffffffffffffffff1681525090565b600080fd5b6000819050919050565b61163f8161162c565b811461164a57600080fd5b50565b60008135905061165c81611636565b92915050565b60006020828403121561167857611677611627565b5b60006116868482850161164d565b91505092915050565b6116988161162c565b82525050565b60006040820190506116b3600083018561168f565b6116c0602083018461168f565b9392505050565b600073ffffffffffffffffffffffffffffffffffffffff82169050919050565b60006116f2826116c7565b9050919050565b611702816116e7565b82525050565b6000611713826116c7565b9050919050565b61172381611708565b82525050565b60008115159050919050565b61173e81611729565b82525050565b600060a08201905061175960008301886116f9565b61176660208301876116f9565b611773604083018661171a565b611780606083018561168f565b61178d6080830184611735565b9695505050505050565b6117a0816116e7565b81146117ab57600080fd5b50565b6000813590506117bd81611797565b92915050565b6000602082840312156117d9576117d8611627565b5b60006117e7848285016117ae565b91505092915050565b600081519050919050565b600082825260208201905092915050565b6000819050602082019050919050565b611825816116e7565b82525050565b61183481611708565b82525050565b6118438161162c565b82525050565b61185281611729565b82525050565b60a08201600082015161186e600085018261181c565b506020820151611881602085018261181c565b506040820151611894604085018261182b565b5060608201516118a7606085018261183a565b5060808201516118ba6080850182611849565b50505050565b60006118cc8383611858565b60a08301905092915050565b6000602082019050919050565b60006118f0826117f0565b6118fa81856117fb565b93506119058361180c565b8060005b8381101561193657815161191d88826118c0565b9750611928836118d8565b925050600181019050611909565b5085935050505092915050565b6000602082019050818103600083015261195d81846118e5565b905092915050565b600060208201905061197a60008301846116f9565b92915050565b6000602082019050611995600083018461168f565b92915050565b600080604083850312156119b2576119b1611627565b5b60006119c0858286016117ae565b92505060206119d18582860161164d565b9150509250929050565b600080604083850312156119f2576119f1611627565b5b6000611a008582860161164d565b9250506020611a11858286016117ae565b9150509250929050565b7f4e487b7100000000000000000000000000000000000000000000000000000000600052603260045260246000fd5b7f4e487b7100000000000000000000000000000000000000000000000000000000600052601160045260246000fd5b6000611a848261162c565b91507fffffffffffffffffffffffffffffffffffffffffffffffffffffffffffffffff821415611ab757611ab6611a4a565b5b600182019050919050565b600082825260208201905092915050565b7f496e76616c69642042657420416d6f756e740000000000000000000000000000600082015250565b6000611b09601283611ac2565b9150611b1482611ad3565b602082019050919050565b60006020820190508181036000830152611b3881611afc565b9050919050565b6000611b4a8261162c565b9150611b558361162c565b925082821015611b6857611b67611a4a565b5b828203905092915050565b7f47616d6520646f6573206e6f7420657869737400000000000000000000000000600082015250565b6000611ba9601383611ac2565b9150611bb482611b73565b602082019050919050565b60006020820190508181036000830152611bd881611b9c565b9050919050565b7f57696e6e6572206e6f742056616c696400000000000000000000000000000000600082015250565b6000611c15601083611ac2565b9150611c2082611bdf565b602082019050919050565b60006020820190508181036000830152611c4481611c08565b9050919050565b6000611c568261162c565b9150611c618361162c565b9250817fffffffffffffffffffffffffffffffffffffffffffffffffffffffffffffffff0483118215151615611c9a57611c99611a4a565b5b828202905092915050565b7f47616d6520646f6573206e6f7420657869737473000000000000000000000000600082015250565b6000611cdb601483611ac2565b9150611ce682611ca5565b602082019050919050565b60006020820190508181036000830152611d0a81611cce565b9050919050565b7f496e76616c696420426574000000000000000000000000000000000000000000600082015250565b6000611d47600b83611ac2565b9150611d5282611d11565b602082019050919050565b60006020820190508181036000830152611d7681611d3a565b9050919050565b7f42657420616c7265616479204d61646500000000000000000000000000000000600082015250565b6000611db3601083611ac2565b9150611dbe82611d7d565b602082019050919050565b60006020820190508181036000830152611de281611da6565b9050919050565b6000611df48261162c565b9150611dff8361162c565b9250827fffffffffffffffffffffffffffffffffffffffffffffffffffffffffffffffff03821115611e3457611e33611a4a565b5b828201905092915050565b7f4e487b7100000000000000000000000000000000000000000000000000000000600052601260045260246000fd5b6000611e798261162c565b9150611e848361162c565b925082611e9457611e93611e3f565b5b82820490509291505056fea26469706673582212206bd21a33ff0b6d1eed824d53e09b110b5d8b686f999f3728f57d0e6885a34d5564736f6c634300080a0033",
  "immutableReferences": {},
  "source": "pragma solidity >=0.4.22 <0.9.0;\n\ncontract Chess {\n  uint256 public gameID;\n  address public owner;\n\n  struct Game {\n    address player1;\n    address player2;\n    address payable winner;\n    uint256 amountBet;\n    bool finished;\n  }\n\n  struct Better {\n    uint256 amountBet;\n    address payable betterAddress;\n    address betSide;\n  }\n\n  struct Bet {\n    uint256 amountPlayer1;\n    uint256 amountPlayer2;\n    Better[] betters;\n  }\n\n  mapping(uint256 => Game) public GameInfo;\n  mapping(address => uint256[]) public GamesPlayed;\n  mapping(uint256 => Bet) public BetInfo;\n\n  constructor() {\n    owner = msg.sender;\n    gameID = 1568;\n  }\n\n  function newGame() public payable {\n    require(msg.value > 0, \"Invalid Bet Amount\");\n    GameInfo[gameID].player1 = msg.sender;\n    GameInfo[gameID].amountBet = msg.value;\n    GameInfo[gameID].finished = false;\n    uint256 game = gameID;\n    GamesPlayed[msg.sender].push(game);\n    gameID++;\n  }\n\n  function getGameID(address player) public view returns (uint256) {\n    return GamesPlayed[player][GamesPlayed[player].length - 1];\n  }\n\n  function getStake(uint256 game) public view returns (uint256) {\n    return GameInfo[game].amountBet;\n  }\n\n  function joinGame(uint256 game) public payable {\n    require(GameInfo[game].amountBet != 0, \"Game does not exist\");\n    GamesPlayed[msg.sender].push(game);\n    GameInfo[game].player2 = msg.sender;\n  }\n\n  function declareWinner(uint256 game, address winner) public {\n    require(!GameInfo[game].finished);\n    require(GameInfo[game].amountBet != 0, \"Game does not exist\");\n    require(GameInfo[game].winner == address(0));\n    require(msg.sender == owner);\n    require(\n      winner == GameInfo[game].player1 || winner == GameInfo[game].player2,\n      \"Winner not Valid\"\n    );\n    GameInfo[game].winner = payable(winner);\n    GameInfo[game].winner.transfer(2 * (GameInfo[game].amountBet));\n    settleBet(game);\n    GameInfo[game].finished = true;\n  }\n\n  function getGames(address user) public view returns (Game[] memory) {\n    Game[] memory Games;\n    for (uint256 i = 0; i < GamesPlayed[user].length; i++) {\n      Games[i] = (GameInfo[GamesPlayed[user][i]]);\n    }\n    return Games;\n  }\n\n  function checkPlayer(address player, uint256 game)\n    private\n    view\n    returns (bool)\n  {\n    for (uint256 i = 0; i < BetInfo[game].betters.length; i++) {\n      if (BetInfo[game].betters[i].betterAddress == player) return false;\n    }\n    return true;\n  }\n\n  function bet(address side, uint256 game) public payable {\n    require(GameInfo[game].amountBet != 0, \"Game does not exists\");\n    require(\n      side == GameInfo[game].player1 || side == GameInfo[game].player2,\n      \"Invalid Bet\"\n    );\n    require(checkPlayer(msg.sender, game), \"Bet already Made\");\n    if (side == GameInfo[game].player1) {\n      BetInfo[game].amountPlayer1 += msg.value;\n    } else {\n      BetInfo[game].amountPlayer2 += msg.value;\n    }\n    Better memory user;\n    user.amountBet = msg.value;\n    user.betterAddress = payable(msg.sender);\n    user.betSide = side;\n\n    BetInfo[game].betters.push(user);\n  }\n\n  function settleBet(uint256 game) private {\n    uint256 transfer;\n    uint256 winAmount;\n    uint256 loseAmount;\n    Better[] memory winners;\n    uint256 count = 0;\n    address winnerSide = GameInfo[game].winner;\n    for (uint256 i = 0; i < BetInfo[game].betters.length; i++) {\n      if (BetInfo[game].betters[i].betSide == winnerSide) {\n        winners[count] = BetInfo[game].betters[i];\n        count++;\n      }\n    }\n    if (winnerSide == GameInfo[game].player1) {\n      winAmount = BetInfo[game].amountPlayer1;\n      loseAmount = BetInfo[game].amountPlayer2;\n    }\n    for (uint256 j = 0; j < count; j++) {\n      if (winners[j].betterAddress != address(0))\n        transfer = winners[j].amountBet;\n      winners[j].betterAddress.transfer(\n        (transfer * (10000 + ((loseAmount * 10000) / winAmount))) / 10000\n      );\n    }\n  }\n}\n",
  "sourcePath": "/home/mayank/crypto-chess/contracts/Chess.sol",
  "compiler": {
    "name": "solc",
    "version": "0.8.10+commit.fc410830.Emscripten.clang"
  },
  "schemaVersion": "3.4.3",
  "updatedAt": "2021-12-10T18:06:32.922Z",
  "networkType": "ethereum",
  "devdoc": {
    "kind": "dev",
    "methods": {},
    "version": 1
  },
  "userdoc": {
    "kind": "user",
    "methods": {},
    "version": 1
  }
}