{
  "contractName": "Chess",
  "abi": [
    {
      "inputs": [],
      "stateMutability": "nonpayable",
      "type": "constructor"
    },
    {
      "inputs": [
        {
          "internalType": "uint256",
          "name": "",
          "type": "uint256"
        }
      ],
      "name": "BetInfo",
      "outputs": [
        {
          "internalType": "uint256",
          "name": "amountPlayer1",
          "type": "uint256"
        },
        {
          "internalType": "uint256",
          "name": "amountPlayer2",
          "type": "uint256"
        }
      ],
      "stateMutability": "view",
      "type": "function",
      "constant": true
    },
    {
      "inputs": [
        {
          "internalType": "uint256",
          "name": "",
          "type": "uint256"
        }
      ],
      "name": "GameInfo",
      "outputs": [
        {
          "internalType": "address",
          "name": "player1",
          "type": "address"
        },
        {
          "internalType": "address",
          "name": "player2",
          "type": "address"
        },
        {
          "internalType": "address payable",
          "name": "winner",
          "type": "address"
        },
        {
          "internalType": "uint256",
          "name": "amountBet",
          "type": "uint256"
        },
        {
          "internalType": "bool",
          "name": "finished",
          "type": "bool"
        }
      ],
      "stateMutability": "view",
      "type": "function",
      "constant": true
    },
    {
      "inputs": [
        {
          "internalType": "address",
          "name": "",
          "type": "address"
        },
        {
          "internalType": "uint256",
          "name": "",
          "type": "uint256"
        }
      ],
      "name": "GamesPlayed",
      "outputs": [
        {
          "internalType": "uint256",
          "name": "",
          "type": "uint256"
        }
      ],
      "stateMutability": "view",
      "type": "function",
      "constant": true
    },
    {
      "inputs": [],
      "name": "gameID",
      "outputs": [
        {
          "internalType": "uint256",
          "name": "",
          "type": "uint256"
        }
      ],
      "stateMutability": "view",
      "type": "function",
      "constant": true
    },
    {
      "inputs": [],
      "name": "owner",
      "outputs": [
        {
          "internalType": "address",
          "name": "",
          "type": "address"
        }
      ],
      "stateMutability": "view",
      "type": "function",
      "constant": true
    },
    {
      "inputs": [],
      "name": "newGame",
      "outputs": [],
      "stateMutability": "payable",
      "type": "function",
      "payable": true
    },
    {
      "inputs": [
        {
          "internalType": "address",
          "name": "player",
          "type": "address"
        }
      ],
      "name": "getGameID",
      "outputs": [
        {
          "internalType": "uint256",
          "name": "",
          "type": "uint256"
        }
      ],
      "stateMutability": "view",
      "type": "function",
      "constant": true
    },
    {
      "inputs": [
        {
          "internalType": "uint256",
          "name": "game",
          "type": "uint256"
        }
      ],
      "name": "getStake",
      "outputs": [
        {
          "internalType": "uint256",
          "name": "",
          "type": "uint256"
        }
      ],
      "stateMutability": "view",
      "type": "function",
      "constant": true
    },
    {
      "inputs": [
        {
          "internalType": "uint256",
          "name": "game",
          "type": "uint256"
        }
      ],
      "name": "joinGame",
      "outputs": [],
      "stateMutability": "payable",
      "type": "function",
      "payable": true
    },
    {
      "inputs": [
        {
          "internalType": "uint256",
          "name": "game",
          "type": "uint256"
        },
        {
          "internalType": "address",
          "name": "winner",
          "type": "address"
        }
      ],
      "name": "declareWinner",
      "outputs": [],
      "stateMutability": "nonpayable",
      "type": "function"
    },
    {
      "inputs": [
        {
          "internalType": "address",
          "name": "user",
          "type": "address"
        }
      ],
      "name": "getGames",
      "outputs": [
        {
          "internalType": "uint256[]",
          "name": "",
          "type": "uint256[]"
        }
      ],
      "stateMutability": "view",
      "type": "function",
      "constant": true
    },
    {
      "inputs": [],
      "name": "getLatestGameId",
      "outputs": [
        {
          "internalType": "uint256",
          "name": "",
          "type": "uint256"
        }
      ],
      "stateMutability": "view",
      "type": "function",
      "constant": true
    },
    {
      "inputs": [
        {
          "internalType": "uint256",
          "name": "game",
          "type": "uint256"
        }
      ],
      "name": "getGame",
      "outputs": [
        {
          "components": [
            {
              "internalType": "address",
              "name": "player1",
              "type": "address"
            },
            {
              "internalType": "address",
              "name": "player2",
              "type": "address"
            },
            {
              "internalType": "address payable",
              "name": "winner",
              "type": "address"
            },
            {
              "internalType": "uint256",
              "name": "amountBet",
              "type": "uint256"
            },
            {
              "internalType": "bool",
              "name": "finished",
              "type": "bool"
            }
          ],
          "internalType": "struct Chess.Game",
          "name": "",
          "type": "tuple"
        }
      ],
      "stateMutability": "view",
      "type": "function",
      "constant": true
    },
    {
      "inputs": [
        {
          "internalType": "uint256",
          "name": "game",
          "type": "uint256"
        }
      ],
      "name": "getBet",
      "outputs": [
        {
          "components": [
            {
              "internalType": "uint256",
              "name": "amountPlayer1",
              "type": "uint256"
            },
            {
              "internalType": "uint256",
              "name": "amountPlayer2",
              "type": "uint256"
            },
            {
              "components": [
                {
                  "internalType": "uint256",
                  "name": "amountBet",
                  "type": "uint256"
                },
                {
                  "internalType": "address payable",
                  "name": "betterAddress",
                  "type": "address"
                },
                {
                  "internalType": "address",
                  "name": "betSide",
                  "type": "address"
                }
              ],
              "internalType": "struct Chess.Better[]",
              "name": "betters",
              "type": "tuple[]"
            }
          ],
          "internalType": "struct Chess.Bet",
          "name": "",
          "type": "tuple"
        }
      ],
      "stateMutability": "view",
      "type": "function",
      "constant": true
    },
    {
      "inputs": [
        {
          "internalType": "address",
          "name": "side",
          "type": "address"
        },
        {
          "internalType": "uint256",
          "name": "game",
          "type": "uint256"
        }
      ],
      "name": "bet",
      "outputs": [],
      "stateMutability": "payable",
      "type": "function",
      "payable": true
    },
    {
      "inputs": [
        {
          "internalType": "uint256",
          "name": "game",
          "type": "uint256"
        },
        {
          "internalType": "address",
          "name": "winner",
          "type": "address"
        }
      ],
      "name": "settleBet",
      "outputs": [],
      "stateMutability": "payable",
      "type": "function",
      "payable": true
    }
  ],
  "bytecode": "0x608060405234801561001057600080fd5b5033600160006101000a81548173ffffffffffffffffffffffffffffffffffffffff021916908373ffffffffffffffffffffffffffffffffffffffff1602179055506106206000819055506122d98061006a6000396000f3fe6080604052600436106100f35760003560e01c8063a2f77bcc1161008a578063da19537f11610059578063da19537f1461034f578063e374b0971461038c578063efaa55a0146103b5578063f846cabc146103d1576100f3565b8063a2f77bcc1461026d578063a507fa41146102aa578063c7dd4b4f146102e7578063ce325bf814610312576100f3565b80636632efbb116100c65780636632efbb146101df5780637d03f5f31461021c5780638da5cb5b146102265780639361b24114610251576100f3565b8063061e494f146100f85780630696d04d1461013557806319c37afc1461017357806339053ca6146101b4575b600080fd5b34801561010457600080fd5b5061011f600480360381019061011a9190611925565b6103ed565b60405161012c9190611b04565b60405180910390f35b34801561014157600080fd5b5061015c60048036038101906101579190611925565b61054f565b60405161016a929190611b35565b60405180910390f35b34801561017f57600080fd5b5061019a60048036038101906101959190611925565b610573565b6040516101ab959493929190611b97565b60405180910390f35b3480156101c057600080fd5b506101c9610616565b6040516101d69190611bea565b60405180910390f35b3480156101eb57600080fd5b5061020660048036038101906102019190611c31565b61061f565b6040516102139190611d0d565b60405180910390f35b6102246106bc565b005b34801561023257600080fd5b5061023b610827565b6040516102489190611d2f565b60405180910390f35b61026b60048036038101906102669190611d4a565b61084d565b005b34801561027957600080fd5b50610294600480360381019061028f9190611925565b610d6a565b6040516102a19190611e01565b60405180910390f35b3480156102b657600080fd5b506102d160048036038101906102cc9190611c31565b610eca565b6040516102de9190611bea565b60405180910390f35b3480156102f357600080fd5b506102fc610f7d565b6040516103099190611bea565b60405180910390f35b34801561031e57600080fd5b5061033960048036038101906103349190611925565b610f83565b6040516103469190611bea565b60405180910390f35b34801561035b57600080fd5b5061037660048036038101906103719190611e1c565b610fa3565b6040516103839190611bea565b60405180910390f35b34801561039857600080fd5b506103b360048036038101906103ae9190611d4a565b610fd4565b005b6103cf60048036038101906103ca9190611925565b61135c565b005b6103eb60048036038101906103e69190611e1c565b611474565b005b6103f5611809565b6103fd611809565b60046000848152602001908152602001600020604051806060016040529081600082015481526020016001820154815260200160028201805480602002602001604051908101604052809291908181526020016000905b8282101561053c5783829060005260206000209060030201604051806060016040529081600082015481526020016001820160009054906101000a900473ffffffffffffffffffffffffffffffffffffffff1673ffffffffffffffffffffffffffffffffffffffff1673ffffffffffffffffffffffffffffffffffffffff1681526020016002820160009054906101000a900473ffffffffffffffffffffffffffffffffffffffff1673ffffffffffffffffffffffffffffffffffffffff1673ffffffffffffffffffffffffffffffffffffffff168152505081526020019060010190610454565b5050505081525050905080915050919050565b60046020528060005260406000206000915090508060000154908060010154905082565b60026020528060005260406000206000915090508060000160009054906101000a900473ffffffffffffffffffffffffffffffffffffffff16908060010160009054906101000a900473ffffffffffffffffffffffffffffffffffffffff16908060020160009054906101000a900473ffffffffffffffffffffffffffffffffffffffff16908060030154908060040160009054906101000a900460ff16905085565b60008054905090565b60606000600360008473ffffffffffffffffffffffffffffffffffffffff1673ffffffffffffffffffffffffffffffffffffffff1681526020019081526020016000208054806020026020016040519081016040528092919081815260200182805480156106ac57602002820191906000526020600020905b815481526020019060010190808311610698575b5050505050905080915050919050565b600034116106ff576040517f08c379a00000000000000000000000000000000000000000000000000000000081526004016106f690611eb9565b60405180910390fd5b33600260008054815260200190815260200160002060000160006101000a81548173ffffffffffffffffffffffffffffffffffffffff021916908373ffffffffffffffffffffffffffffffffffffffff160217905550346002600080548152602001908152602001600020600301819055506000600260008054815260200190815260200160002060040160006101000a81548160ff021916908315150217905550600080549050600360003373ffffffffffffffffffffffffffffffffffffffff1673ffffffffffffffffffffffffffffffffffffffff16815260200190815260200160002081908060018154018082558091505060019003906000526020600020016000909190919091505560008081548092919061081f90611f08565b919050555050565b600160009054906101000a900473ffffffffffffffffffffffffffffffffffffffff1681565b6000806000806000905060005b600460008881526020019081526020016000206002018054905081101561092a578573ffffffffffffffffffffffffffffffffffffffff166004600089815260200190815260200160002060020182815481106108ba576108b9611f51565b5b906000526020600020906003020160020160009054906101000a900473ffffffffffffffffffffffffffffffffffffffff1673ffffffffffffffffffffffffffffffffffffffff16141561091757818061091390611f08565b9250505b808061092290611f08565b91505061085a565b5060008167ffffffffffffffff81111561094757610946611f80565b5b60405190808252806020026020018201604052801561098057816020015b61096d61182a565b8152602001906001900390816109655790505b5090506000805b600460008a815260200190815260200160002060020180549050811015610b6c578773ffffffffffffffffffffffffffffffffffffffff16600460008b815260200190815260200160002060020182815481106109e7576109e6611f51565b5b906000526020600020906003020160020160009054906101000a900473ffffffffffffffffffffffffffffffffffffffff1673ffffffffffffffffffffffffffffffffffffffff161415610b5957600460008a81526020019081526020016000206002018181548110610a5d57610a5c611f51565b5b9060005260206000209060030201604051806060016040529081600082015481526020016001820160009054906101000a900473ffffffffffffffffffffffffffffffffffffffff1673ffffffffffffffffffffffffffffffffffffffff1673ffffffffffffffffffffffffffffffffffffffff1681526020016002820160009054906101000a900473ffffffffffffffffffffffffffffffffffffffff1673ffffffffffffffffffffffffffffffffffffffff1673ffffffffffffffffffffffffffffffffffffffff1681525050838381518110610b3f57610b3e611f51565b5b60200260200101819052508180610b5590611f08565b9250505b8080610b6490611f08565b915050610987565b506002600089815260200190815260200160002060000160009054906101000a900473ffffffffffffffffffffffffffffffffffffffff1673ffffffffffffffffffffffffffffffffffffffff168773ffffffffffffffffffffffffffffffffffffffff161415610c0e576004600089815260200190815260200160002060000154945060046000898152602001908152602001600020600101549350610c41565b60046000898152602001908152602001600020600101549450600460008981526020019081526020016000206000015493505b60008486610c4f9190611faf565b905060005b82811015610d5e57600073ffffffffffffffffffffffffffffffffffffffff16848281518110610c8757610c86611f51565b5b60200260200101516020015173ffffffffffffffffffffffffffffffffffffffff1614610d4b57838181518110610cc157610cc0611f51565b5b6020026020010151600001519750838181518110610ce257610ce1611f51565b5b60200260200101516020015173ffffffffffffffffffffffffffffffffffffffff166108fc898985610d149190612034565b610d1e9190612065565b9081150290604051600060405180830381858888f19350505050158015610d49573d6000803e3d6000fd5b505b8080610d5690611f08565b915050610c54565b50505050505050505050565b610d72611877565b610d7a611877565b600260008481526020019081526020016000206040518060a00160405290816000820160009054906101000a900473ffffffffffffffffffffffffffffffffffffffff1673ffffffffffffffffffffffffffffffffffffffff1673ffffffffffffffffffffffffffffffffffffffff1681526020016001820160009054906101000a900473ffffffffffffffffffffffffffffffffffffffff1673ffffffffffffffffffffffffffffffffffffffff1673ffffffffffffffffffffffffffffffffffffffff1681526020016002820160009054906101000a900473ffffffffffffffffffffffffffffffffffffffff1673ffffffffffffffffffffffffffffffffffffffff1673ffffffffffffffffffffffffffffffffffffffff168152602001600382015481526020016004820160009054906101000a900460ff161515151581525050905080915050919050565b6000600360008373ffffffffffffffffffffffffffffffffffffffff1673ffffffffffffffffffffffffffffffffffffffff1681526020019081526020016000206001600360008573ffffffffffffffffffffffffffffffffffffffff1673ffffffffffffffffffffffffffffffffffffffff16815260200190815260200160002080549050610f5a91906120bf565b81548110610f6b57610f6a611f51565b5b90600052602060002001549050919050565b60005481565b600060026000838152602001908152602001600020600301549050919050565b60036020528160005260406000208181548110610fbf57600080fd5b90600052602060002001600091509150505481565b6002600083815260200190815260200160002060040160009054906101000a900460ff161561100257600080fd5b60006002600084815260200190815260200160002060030154141561105c576040517f08c379a00000000000000000000000000000000000000000000000000000000081526004016110539061213f565b60405180910390fd5b600073ffffffffffffffffffffffffffffffffffffffff166002600084815260200190815260200160002060020160009054906101000a900473ffffffffffffffffffffffffffffffffffffffff1673ffffffffffffffffffffffffffffffffffffffff16146110cb57600080fd5b600160009054906101000a900473ffffffffffffffffffffffffffffffffffffffff1673ffffffffffffffffffffffffffffffffffffffff163373ffffffffffffffffffffffffffffffffffffffff161461112557600080fd5b6002600083815260200190815260200160002060000160009054906101000a900473ffffffffffffffffffffffffffffffffffffffff1673ffffffffffffffffffffffffffffffffffffffff168173ffffffffffffffffffffffffffffffffffffffff1614806111f657506002600083815260200190815260200160002060010160009054906101000a900473ffffffffffffffffffffffffffffffffffffffff1673ffffffffffffffffffffffffffffffffffffffff168173ffffffffffffffffffffffffffffffffffffffff16145b611235576040517f08c379a000000000000000000000000000000000000000000000000000000000815260040161122c906121ab565b60405180910390fd5b806002600084815260200190815260200160002060020160006101000a81548173ffffffffffffffffffffffffffffffffffffffff021916908373ffffffffffffffffffffffffffffffffffffffff1602179055506002600083815260200190815260200160002060020160009054906101000a900473ffffffffffffffffffffffffffffffffffffffff1673ffffffffffffffffffffffffffffffffffffffff166108fc600260008581526020019081526020016000206003015460026112fd9190612065565b9081150290604051600060405180830381858888f19350505050158015611328573d6000803e3d6000fd5b5060016002600084815260200190815260200160002060040160006101000a81548160ff0219169083151502179055505050565b6000600260008381526020019081526020016000206003015414156113b6576040517f08c379a00000000000000000000000000000000000000000000000000000000081526004016113ad9061213f565b60405180910390fd5b600360003373ffffffffffffffffffffffffffffffffffffffff1673ffffffffffffffffffffffffffffffffffffffff168152602001908152602001600020819080600181540180825580915050600190039060005260206000200160009091909190915055336002600083815260200190815260200160002060010160006101000a81548173ffffffffffffffffffffffffffffffffffffffff021916908373ffffffffffffffffffffffffffffffffffffffff16021790555050565b6000600260008381526020019081526020016000206003015414156114ce576040517f08c379a00000000000000000000000000000000000000000000000000000000081526004016114c590612217565b60405180910390fd5b6002600082815260200190815260200160002060000160009054906101000a900473ffffffffffffffffffffffffffffffffffffffff1673ffffffffffffffffffffffffffffffffffffffff168273ffffffffffffffffffffffffffffffffffffffff16148061159f57506002600082815260200190815260200160002060010160009054906101000a900473ffffffffffffffffffffffffffffffffffffffff1673ffffffffffffffffffffffffffffffffffffffff168273ffffffffffffffffffffffffffffffffffffffff16145b6115de576040517f08c379a00000000000000000000000000000000000000000000000000000000081526004016115d590612283565b60405180910390fd5b6002600082815260200190815260200160002060000160009054906101000a900473ffffffffffffffffffffffffffffffffffffffff1673ffffffffffffffffffffffffffffffffffffffff168273ffffffffffffffffffffffffffffffffffffffff16141561167a573460046000838152602001908152602001600020600001600082825461166e9190611faf565b925050819055506116a8565b346004600083815260200190815260200160002060010160008282546116a09190611faf565b925050819055505b6116b061182a565b3481600001818152505033816020019073ffffffffffffffffffffffffffffffffffffffff16908173ffffffffffffffffffffffffffffffffffffffff168152505082816040019073ffffffffffffffffffffffffffffffffffffffff16908173ffffffffffffffffffffffffffffffffffffffff1681525050600460008381526020019081526020016000206002018190806001815401808255809150506001900390600052602060002090600302016000909190919091506000820151816000015560208201518160010160006101000a81548173ffffffffffffffffffffffffffffffffffffffff021916908373ffffffffffffffffffffffffffffffffffffffff16021790555060408201518160020160006101000a81548173ffffffffffffffffffffffffffffffffffffffff021916908373ffffffffffffffffffffffffffffffffffffffff1602179055505050505050565b60405180606001604052806000815260200160008152602001606081525090565b604051806060016040528060008152602001600073ffffffffffffffffffffffffffffffffffffffff168152602001600073ffffffffffffffffffffffffffffffffffffffff1681525090565b6040518060a00160405280600073ffffffffffffffffffffffffffffffffffffffff168152602001600073ffffffffffffffffffffffffffffffffffffffff168152602001600073ffffffffffffffffffffffffffffffffffffffff168152602001600081526020016000151581525090565b600080fd5b6000819050919050565b611902816118ef565b811461190d57600080fd5b50565b60008135905061191f816118f9565b92915050565b60006020828403121561193b5761193a6118ea565b5b600061194984828501611910565b91505092915050565b61195b816118ef565b82525050565b600081519050919050565b600082825260208201905092915050565b6000819050602082019050919050565b600073ffffffffffffffffffffffffffffffffffffffff82169050919050565b60006119b88261198d565b9050919050565b6119c8816119ad565b82525050565b60006119d98261198d565b9050919050565b6119e9816119ce565b82525050565b606082016000820151611a056000850182611952565b506020820151611a1860208501826119bf565b506040820151611a2b60408501826119e0565b50505050565b6000611a3d83836119ef565b60608301905092915050565b6000602082019050919050565b6000611a6182611961565b611a6b818561196c565b9350611a768361197d565b8060005b83811015611aa7578151611a8e8882611a31565b9750611a9983611a49565b925050600181019050611a7a565b5085935050505092915050565b6000606083016000830151611acc6000860182611952565b506020830151611adf6020860182611952565b5060408301518482036040860152611af78282611a56565b9150508091505092915050565b60006020820190508181036000830152611b1e8184611ab4565b905092915050565b611b2f816118ef565b82525050565b6000604082019050611b4a6000830185611b26565b611b576020830184611b26565b9392505050565b611b67816119ce565b82525050565b611b76816119ad565b82525050565b60008115159050919050565b611b9181611b7c565b82525050565b600060a082019050611bac6000830188611b5e565b611bb96020830187611b5e565b611bc66040830186611b6d565b611bd36060830185611b26565b611be06080830184611b88565b9695505050505050565b6000602082019050611bff6000830184611b26565b92915050565b611c0e816119ce565b8114611c1957600080fd5b50565b600081359050611c2b81611c05565b92915050565b600060208284031215611c4757611c466118ea565b5b6000611c5584828501611c1c565b91505092915050565b600081519050919050565b600082825260208201905092915050565b6000819050602082019050919050565b6000611c968383611952565b60208301905092915050565b6000602082019050919050565b6000611cba82611c5e565b611cc48185611c69565b9350611ccf83611c7a565b8060005b83811015611d00578151611ce78882611c8a565b9750611cf283611ca2565b925050600181019050611cd3565b5085935050505092915050565b60006020820190508181036000830152611d278184611caf565b905092915050565b6000602082019050611d446000830184611b5e565b92915050565b60008060408385031215611d6157611d606118ea565b5b6000611d6f85828601611910565b9250506020611d8085828601611c1c565b9150509250929050565b611d9381611b7c565b82525050565b60a082016000820151611daf60008501826119e0565b506020820151611dc260208501826119e0565b506040820151611dd560408501826119bf565b506060820151611de86060850182611952565b506080820151611dfb6080850182611d8a565b50505050565b600060a082019050611e166000830184611d99565b92915050565b60008060408385031215611e3357611e326118ea565b5b6000611e4185828601611c1c565b9250506020611e5285828601611910565b9150509250929050565b600082825260208201905092915050565b7f496e76616c69642042657420416d6f756e740000000000000000000000000000600082015250565b6000611ea3601283611e5c565b9150611eae82611e6d565b602082019050919050565b60006020820190508181036000830152611ed281611e96565b9050919050565b7f4e487b7100000000000000000000000000000000000000000000000000000000600052601160045260246000fd5b6000611f13826118ef565b91507fffffffffffffffffffffffffffffffffffffffffffffffffffffffffffffffff821415611f4657611f45611ed9565b5b600182019050919050565b7f4e487b7100000000000000000000000000000000000000000000000000000000600052603260045260246000fd5b7f4e487b7100000000000000000000000000000000000000000000000000000000600052604160045260246000fd5b6000611fba826118ef565b9150611fc5836118ef565b9250827fffffffffffffffffffffffffffffffffffffffffffffffffffffffffffffffff03821115611ffa57611ff9611ed9565b5b828201905092915050565b7f4e487b7100000000000000000000000000000000000000000000000000000000600052601260045260246000fd5b600061203f826118ef565b915061204a836118ef565b92508261205a57612059612005565b5b828204905092915050565b6000612070826118ef565b915061207b836118ef565b9250817fffffffffffffffffffffffffffffffffffffffffffffffffffffffffffffffff04831182151516156120b4576120b3611ed9565b5b828202905092915050565b60006120ca826118ef565b91506120d5836118ef565b9250828210156120e8576120e7611ed9565b5b828203905092915050565b7f47616d6520646f6573206e6f7420657869737400000000000000000000000000600082015250565b6000612129601383611e5c565b9150612134826120f3565b602082019050919050565b600060208201905081810360008301526121588161211c565b9050919050565b7f57696e6e6572206e6f742056616c696400000000000000000000000000000000600082015250565b6000612195601083611e5c565b91506121a08261215f565b602082019050919050565b600060208201905081810360008301526121c481612188565b9050919050565b7f47616d6520646f6573206e6f7420657869737473000000000000000000000000600082015250565b6000612201601483611e5c565b915061220c826121cb565b602082019050919050565b60006020820190508181036000830152612230816121f4565b9050919050565b7f496e76616c696420426574000000000000000000000000000000000000000000600082015250565b600061226d600b83611e5c565b915061227882612237565b602082019050919050565b6000602082019050818103600083015261229c81612260565b905091905056fea2646970667358221220265ad4a58e064cf087d599ed1679bdb3c4d6089d024565e03cc9f114c4f3d87864736f6c634300080a0033",
  "immutableReferences": {},
  "source": "pragma solidity >=0.4.22 <0.9.0;\n\ncontract Chess {\n    uint256 public gameID;\n    address public owner;\n\n    struct Game {\n        address player1;\n        address player2;\n        address payable winner;\n        uint256 amountBet;\n        bool finished;\n    }\n\n    struct Better {\n        uint256 amountBet;\n        address payable betterAddress;\n        address betSide;\n    }\n\n    struct Bet {\n        uint256 amountPlayer1;\n        uint256 amountPlayer2;\n        Better[] betters;\n    }\n\n    mapping(uint256 => Game) public GameInfo;\n    mapping(address => uint256[]) public GamesPlayed;\n    mapping(uint256 => Bet) public BetInfo;\n\n    constructor() {\n        owner = msg.sender;\n        gameID = 1568;\n    }\n\n    function newGame() public payable {\n        require(msg.value > 0, \"Invalid Bet Amount\");\n        GameInfo[gameID].player1 = msg.sender;\n        GameInfo[gameID].amountBet = msg.value;\n        GameInfo[gameID].finished = false;\n        uint256 game = gameID;\n        GamesPlayed[msg.sender].push(game);\n        gameID++;\n    }\n\n    function getGameID(address player) public view returns (uint256) {\n        return GamesPlayed[player][GamesPlayed[player].length - 1];\n    }\n\n    function getStake(uint256 game) public view returns (uint256) {\n        return GameInfo[game].amountBet;\n    }\n\n    function joinGame(uint256 game) public payable {\n        require(GameInfo[game].amountBet != 0, \"Game does not exist\");\n        GamesPlayed[msg.sender].push(game);\n        GameInfo[game].player2 = msg.sender;\n    }\n\n    function declareWinner(uint256 game, address winner) public {\n        require(!GameInfo[game].finished);\n        require(GameInfo[game].amountBet != 0, \"Game does not exist\");\n        require(GameInfo[game].winner == address(0));\n        require(msg.sender == owner);\n        require(\n            winner == GameInfo[game].player1 ||\n                winner == GameInfo[game].player2,\n            \"Winner not Valid\"\n        );\n        GameInfo[game].winner = payable(winner);\n        GameInfo[game].winner.transfer(2 * (GameInfo[game].amountBet));\n        GameInfo[game].finished = true;\n    }\n\n    function getGames(address user) public view returns (uint256[] memory) {\n        uint256[] memory games = GamesPlayed[user];\n        return games;\n    }\n\n    function getLatestGameId() public view returns (uint256) {\n        return gameID;\n    }\n\n    function getGame(uint256 game) public view returns (Game memory) {\n        Game memory requestedGame;\n        requestedGame = GameInfo[game];\n        return requestedGame;\n    }\n\n    function getBet(uint256 game) public view returns (Bet memory) {\n        Bet memory requestedGame;\n        requestedGame = BetInfo[game];\n        return requestedGame;\n    }\n\n    function checkPlayer(address player, uint256 game)\n        private\n        view\n        returns (bool)\n    {\n        for (uint256 i = 0; i < BetInfo[game].betters.length; i++) {\n            if (BetInfo[game].betters[i].betterAddress == player) return false;\n        }\n        return true;\n    }\n\n    function bet(address side, uint256 game) public payable {\n        require(GameInfo[game].amountBet != 0, \"Game does not exists\");\n        require(\n            side == GameInfo[game].player1 || side == GameInfo[game].player2,\n            \"Invalid Bet\"\n        );\n        //require(checkPlayer(msg.sender, game), \"Bet already Made\");\n        if (side == GameInfo[game].player1) {\n            BetInfo[game].amountPlayer1 += msg.value;\n        } else {\n            BetInfo[game].amountPlayer2 += msg.value;\n        }\n        Better memory user;\n        user.amountBet = msg.value;\n        user.betterAddress = payable(msg.sender);\n        user.betSide = side;\n\n        BetInfo[game].betters.push(user);\n    }\n\n    function settleBet(uint256 game, address winner) public payable {\n        uint256 transfer;\n        uint256 winAmount;\n        uint256 loseAmount;\n        uint256 winnerCount = 0;\n        for (uint256 i = 0; i < BetInfo[game].betters.length; i++) {\n            if (BetInfo[game].betters[i].betSide == winner) {\n                winnerCount++;\n            }\n        }\n        Better[] memory winners = new Better[](winnerCount);\n        uint256 count = 0;\n        for (uint256 i = 0; i < BetInfo[game].betters.length; i++) {\n            if (BetInfo[game].betters[i].betSide == winner) {\n                winners[count] = BetInfo[game].betters[i];\n                count++;\n            }\n        }\n        if (winner == GameInfo[game].player1) {\n            winAmount = BetInfo[game].amountPlayer1;\n            loseAmount = BetInfo[game].amountPlayer2;\n        } else {\n            winAmount = BetInfo[game].amountPlayer2;\n            loseAmount = BetInfo[game].amountPlayer1;\n        }\n        uint256 totalAmount = winAmount + loseAmount;\n        for (uint256 j = 0; j < count; j++) {\n            if (winners[j].betterAddress != address(0)) {\n                transfer = winners[j].amountBet;\n                winners[j].betterAddress.transfer(\n                    (totalAmount / winAmount) * transfer\n                );\n            }\n        }\n    }\n}\n",
  "sourcePath": "/home/mayank/crypto-chess/contracts/Chess.sol",
  "compiler": {
    "name": "solc",
    "version": "0.8.10+commit.fc410830.Emscripten.clang"
  },
  "schemaVersion": "3.4.3",
  "updatedAt": "2021-12-14T17:57:45.357Z",
  "networkType": "ethereum",
  "devdoc": {
    "kind": "dev",
    "methods": {},
    "version": 1
  },
  "userdoc": {
    "kind": "user",
    "methods": {},
    "version": 1
  }
}