{
  "contractName": "Chess",
  "abi": [
    {
      "inputs": [],
      "stateMutability": "nonpayable",
      "type": "constructor"
    },
    {
      "inputs": [
        {
          "internalType": "uint256",
          "name": "",
          "type": "uint256"
        }
      ],
      "name": "BetInfo",
      "outputs": [
        {
          "internalType": "uint256",
          "name": "amountPlayer1",
          "type": "uint256"
        },
        {
          "internalType": "uint256",
          "name": "amountPlayer2",
          "type": "uint256"
        }
      ],
      "stateMutability": "view",
      "type": "function",
      "constant": true
    },
    {
      "inputs": [
        {
          "internalType": "uint256",
          "name": "",
          "type": "uint256"
        }
      ],
      "name": "GameInfo",
      "outputs": [
        {
          "internalType": "address",
          "name": "player1",
          "type": "address"
        },
        {
          "internalType": "address",
          "name": "player2",
          "type": "address"
        },
        {
          "internalType": "address payable",
          "name": "winner",
          "type": "address"
        },
        {
          "internalType": "uint256",
          "name": "amountBet",
          "type": "uint256"
        },
        {
          "internalType": "bool",
          "name": "finished",
          "type": "bool"
        }
      ],
      "stateMutability": "view",
      "type": "function",
      "constant": true
    },
    {
      "inputs": [
        {
          "internalType": "address",
          "name": "",
          "type": "address"
        },
        {
          "internalType": "uint256",
          "name": "",
          "type": "uint256"
        }
      ],
      "name": "GamesPlayed",
      "outputs": [
        {
          "internalType": "uint256",
          "name": "",
          "type": "uint256"
        }
      ],
      "stateMutability": "view",
      "type": "function",
      "constant": true
    },
    {
      "inputs": [],
      "name": "gameID",
      "outputs": [
        {
          "internalType": "uint256",
          "name": "",
          "type": "uint256"
        }
      ],
      "stateMutability": "view",
      "type": "function",
      "constant": true
    },
    {
      "inputs": [],
      "name": "owner",
      "outputs": [
        {
          "internalType": "address",
          "name": "",
          "type": "address"
        }
      ],
      "stateMutability": "view",
      "type": "function",
      "constant": true
    },
    {
      "inputs": [],
      "name": "newGame",
      "outputs": [],
      "stateMutability": "payable",
      "type": "function",
      "payable": true
    },
    {
      "inputs": [
        {
          "internalType": "address",
          "name": "player",
          "type": "address"
        }
      ],
      "name": "getGameID",
      "outputs": [
        {
          "internalType": "uint256",
          "name": "",
          "type": "uint256"
        }
      ],
      "stateMutability": "view",
      "type": "function",
      "constant": true
    },
    {
      "inputs": [
        {
          "internalType": "uint256",
          "name": "game",
          "type": "uint256"
        }
      ],
      "name": "getStake",
      "outputs": [
        {
          "internalType": "uint256",
          "name": "",
          "type": "uint256"
        }
      ],
      "stateMutability": "view",
      "type": "function",
      "constant": true
    },
    {
      "inputs": [
        {
          "internalType": "uint256",
          "name": "game",
          "type": "uint256"
        }
      ],
      "name": "joinGame",
      "outputs": [],
      "stateMutability": "payable",
      "type": "function",
      "payable": true
    },
    {
      "inputs": [
        {
          "internalType": "uint256",
          "name": "game",
          "type": "uint256"
        },
        {
          "internalType": "address",
          "name": "winner",
          "type": "address"
        }
      ],
      "name": "declareWinner",
      "outputs": [],
      "stateMutability": "nonpayable",
      "type": "function"
    },
    {
      "inputs": [
        {
          "internalType": "address",
          "name": "user",
          "type": "address"
        }
      ],
      "name": "getGames",
      "outputs": [
        {
          "internalType": "uint256[]",
          "name": "",
          "type": "uint256[]"
        }
      ],
      "stateMutability": "view",
      "type": "function",
      "constant": true
    },
    {
      "inputs": [],
      "name": "getLatestGameId",
      "outputs": [
        {
          "internalType": "uint256",
          "name": "",
          "type": "uint256"
        }
      ],
      "stateMutability": "view",
      "type": "function",
      "constant": true
    },
    {
      "inputs": [
        {
          "internalType": "uint256",
          "name": "game",
          "type": "uint256"
        }
      ],
      "name": "getGame",
      "outputs": [
        {
          "components": [
            {
              "internalType": "address",
              "name": "player1",
              "type": "address"
            },
            {
              "internalType": "address",
              "name": "player2",
              "type": "address"
            },
            {
              "internalType": "address payable",
              "name": "winner",
              "type": "address"
            },
            {
              "internalType": "uint256",
              "name": "amountBet",
              "type": "uint256"
            },
            {
              "internalType": "bool",
              "name": "finished",
              "type": "bool"
            }
          ],
          "internalType": "struct Chess.Game",
          "name": "",
          "type": "tuple"
        }
      ],
      "stateMutability": "view",
      "type": "function",
      "constant": true
    },
    {
      "inputs": [
        {
          "internalType": "address",
          "name": "side",
          "type": "address"
        },
        {
          "internalType": "uint256",
          "name": "game",
          "type": "uint256"
        }
      ],
      "name": "bet",
      "outputs": [],
      "stateMutability": "payable",
      "type": "function",
      "payable": true
    }
  ],
  "bytecode": "0x608060405234801561001057600080fd5b5033600160006101000a81548173ffffffffffffffffffffffffffffffffffffffff021916908373ffffffffffffffffffffffffffffffffffffffff160217905550610620600081905550611e488061006a6000396000f3fe6080604052600436106100dd5760003560e01c8063a507fa411161007f578063da19537f11610059578063da19537f146102e0578063e374b0971461031d578063efaa55a014610346578063f846cabc14610362576100dd565b8063a507fa411461023b578063c7dd4b4f14610278578063ce325bf8146102a3576100dd565b80636632efbb116100bb5780636632efbb1461018c5780637d03f5f3146101c95780638da5cb5b146101d3578063a2f77bcc146101fe576100dd565b80630696d04d146100e257806319c37afc1461012057806339053ca614610161575b600080fd5b3480156100ee57600080fd5b5061010960048036038101906101049190611626565b61037e565b604051610117929190611662565b60405180910390f35b34801561012c57600080fd5b5061014760048036038101906101429190611626565b6103a2565b604051610158959493929190611708565b60405180910390f35b34801561016d57600080fd5b50610176610445565b604051610183919061175b565b60405180910390f35b34801561019857600080fd5b506101b360048036038101906101ae91906117a2565b61044e565b6040516101c0919061188d565b60405180910390f35b6101d16104eb565b005b3480156101df57600080fd5b506101e8610656565b6040516101f591906118af565b60405180910390f35b34801561020a57600080fd5b5061022560048036038101906102209190611626565b61067c565b604051610232919061195f565b60405180910390f35b34801561024757600080fd5b50610262600480360381019061025d91906117a2565b6107dc565b60405161026f919061175b565b60405180910390f35b34801561028457600080fd5b5061028d61088f565b60405161029a919061175b565b60405180910390f35b3480156102af57600080fd5b506102ca60048036038101906102c59190611626565b610895565b6040516102d7919061175b565b60405180910390f35b3480156102ec57600080fd5b506103076004803603810190610302919061197a565b6108b5565b604051610314919061175b565b60405180910390f35b34801561032957600080fd5b50610344600480360381019061033f91906119ba565b6108e6565b005b610360600480360381019061035b9190611626565b610c77565b005b61037c6004803603810190610377919061197a565b610d8f565b005b60046020528060005260406000206000915090508060000154908060010154905082565b60026020528060005260406000206000915090508060000160009054906101000a900473ffffffffffffffffffffffffffffffffffffffff16908060010160009054906101000a900473ffffffffffffffffffffffffffffffffffffffff16908060020160009054906101000a900473ffffffffffffffffffffffffffffffffffffffff16908060030154908060040160009054906101000a900460ff16905085565b60008054905090565b60606000600360008473ffffffffffffffffffffffffffffffffffffffff1673ffffffffffffffffffffffffffffffffffffffff1681526020019081526020016000208054806020026020016040519081016040528092919081815260200182805480156104db57602002820191906000526020600020905b8154815260200190600101908083116104c7575b5050505050905080915050919050565b6000341161052e576040517f08c379a000000000000000000000000000000000000000000000000000000000815260040161052590611a57565b60405180910390fd5b33600260008054815260200190815260200160002060000160006101000a81548173ffffffffffffffffffffffffffffffffffffffff021916908373ffffffffffffffffffffffffffffffffffffffff160217905550346002600080548152602001908152602001600020600301819055506000600260008054815260200190815260200160002060040160006101000a81548160ff021916908315150217905550600080549050600360003373ffffffffffffffffffffffffffffffffffffffff1673ffffffffffffffffffffffffffffffffffffffff16815260200190815260200160002081908060018154018082558091505060019003906000526020600020016000909190919091505560008081548092919061064e90611aa6565b919050555050565b600160009054906101000a900473ffffffffffffffffffffffffffffffffffffffff1681565b61068461152b565b61068c61152b565b600260008481526020019081526020016000206040518060a00160405290816000820160009054906101000a900473ffffffffffffffffffffffffffffffffffffffff1673ffffffffffffffffffffffffffffffffffffffff1673ffffffffffffffffffffffffffffffffffffffff1681526020016001820160009054906101000a900473ffffffffffffffffffffffffffffffffffffffff1673ffffffffffffffffffffffffffffffffffffffff1673ffffffffffffffffffffffffffffffffffffffff1681526020016002820160009054906101000a900473ffffffffffffffffffffffffffffffffffffffff1673ffffffffffffffffffffffffffffffffffffffff1673ffffffffffffffffffffffffffffffffffffffff168152602001600382015481526020016004820160009054906101000a900460ff161515151581525050905080915050919050565b6000600360008373ffffffffffffffffffffffffffffffffffffffff1673ffffffffffffffffffffffffffffffffffffffff1681526020019081526020016000206001600360008573ffffffffffffffffffffffffffffffffffffffff1673ffffffffffffffffffffffffffffffffffffffff1681526020019081526020016000208054905061086c9190611aef565b8154811061087d5761087c611b23565b5b90600052602060002001549050919050565b60005481565b600060026000838152602001908152602001600020600301549050919050565b600360205281600052604060002081815481106108d157600080fd5b90600052602060002001600091509150505481565b6002600083815260200190815260200160002060040160009054906101000a900460ff161561091457600080fd5b60006002600084815260200190815260200160002060030154141561096e576040517f08c379a000000000000000000000000000000000000000000000000000000000815260040161096590611b9e565b60405180910390fd5b600073ffffffffffffffffffffffffffffffffffffffff166002600084815260200190815260200160002060020160009054906101000a900473ffffffffffffffffffffffffffffffffffffffff1673ffffffffffffffffffffffffffffffffffffffff16146109dd57600080fd5b600160009054906101000a900473ffffffffffffffffffffffffffffffffffffffff1673ffffffffffffffffffffffffffffffffffffffff163373ffffffffffffffffffffffffffffffffffffffff1614610a3757600080fd5b6002600083815260200190815260200160002060000160009054906101000a900473ffffffffffffffffffffffffffffffffffffffff1673ffffffffffffffffffffffffffffffffffffffff168173ffffffffffffffffffffffffffffffffffffffff161480610b0857506002600083815260200190815260200160002060010160009054906101000a900473ffffffffffffffffffffffffffffffffffffffff1673ffffffffffffffffffffffffffffffffffffffff168173ffffffffffffffffffffffffffffffffffffffff16145b610b47576040517f08c379a0000000000000000000000000000000000000000000000000000000008152600401610b3e90611c0a565b60405180910390fd5b806002600084815260200190815260200160002060020160006101000a81548173ffffffffffffffffffffffffffffffffffffffff021916908373ffffffffffffffffffffffffffffffffffffffff1602179055506002600083815260200190815260200160002060020160009054906101000a900473ffffffffffffffffffffffffffffffffffffffff1673ffffffffffffffffffffffffffffffffffffffff166108fc60026000858152602001908152602001600020600301546002610c0f9190611c2a565b9081150290604051600060405180830381858888f19350505050158015610c3a573d6000803e3d6000fd5b50610c4482611124565b60016002600084815260200190815260200160002060040160006101000a81548160ff0219169083151502179055505050565b600060026000838152602001908152602001600020600301541415610cd1576040517f08c379a0000000000000000000000000000000000000000000000000000000008152600401610cc890611b9e565b60405180910390fd5b600360003373ffffffffffffffffffffffffffffffffffffffff1673ffffffffffffffffffffffffffffffffffffffff168152602001908152602001600020819080600181540180825580915050600190039060005260206000200160009091909190915055336002600083815260200190815260200160002060010160006101000a81548173ffffffffffffffffffffffffffffffffffffffff021916908373ffffffffffffffffffffffffffffffffffffffff16021790555050565b600060026000838152602001908152602001600020600301541415610de9576040517f08c379a0000000000000000000000000000000000000000000000000000000008152600401610de090611cd0565b60405180910390fd5b6002600082815260200190815260200160002060000160009054906101000a900473ffffffffffffffffffffffffffffffffffffffff1673ffffffffffffffffffffffffffffffffffffffff168273ffffffffffffffffffffffffffffffffffffffff161480610eba57506002600082815260200190815260200160002060010160009054906101000a900473ffffffffffffffffffffffffffffffffffffffff1673ffffffffffffffffffffffffffffffffffffffff168273ffffffffffffffffffffffffffffffffffffffff16145b610ef9576040517f08c379a0000000000000000000000000000000000000000000000000000000008152600401610ef090611d3c565b60405180910390fd5b6002600082815260200190815260200160002060000160009054906101000a900473ffffffffffffffffffffffffffffffffffffffff1673ffffffffffffffffffffffffffffffffffffffff168273ffffffffffffffffffffffffffffffffffffffff161415610f955734600460008381526020019081526020016000206000016000828254610f899190611d5c565b92505081905550610fc3565b34600460008381526020019081526020016000206001016000828254610fbb9190611d5c565b925050819055505b610fcb61159e565b3481600001818152505033816020019073ffffffffffffffffffffffffffffffffffffffff16908173ffffffffffffffffffffffffffffffffffffffff168152505082816040019073ffffffffffffffffffffffffffffffffffffffff16908173ffffffffffffffffffffffffffffffffffffffff1681525050600460008381526020019081526020016000206002018190806001815401808255809150506001900390600052602060002090600302016000909190919091506000820151816000015560208201518160010160006101000a81548173ffffffffffffffffffffffffffffffffffffffff021916908373ffffffffffffffffffffffffffffffffffffffff16021790555060408201518160020160006101000a81548173ffffffffffffffffffffffffffffffffffffffff021916908373ffffffffffffffffffffffffffffffffffffffff1602179055505050505050565b600080600060606000806002600088815260200190815260200160002060020160009054906101000a900473ffffffffffffffffffffffffffffffffffffffff16905060005b600460008981526020019081526020016000206002018054905081101561134f578173ffffffffffffffffffffffffffffffffffffffff16600460008a815260200190815260200160002060020182815481106111ca576111c9611b23565b5b906000526020600020906003020160020160009054906101000a900473ffffffffffffffffffffffffffffffffffffffff1673ffffffffffffffffffffffffffffffffffffffff16141561133c576004600089815260200190815260200160002060020181815481106112405761123f611b23565b5b9060005260206000209060030201604051806060016040529081600082015481526020016001820160009054906101000a900473ffffffffffffffffffffffffffffffffffffffff1673ffffffffffffffffffffffffffffffffffffffff1673ffffffffffffffffffffffffffffffffffffffff1681526020016002820160009054906101000a900473ffffffffffffffffffffffffffffffffffffffff1673ffffffffffffffffffffffffffffffffffffffff1673ffffffffffffffffffffffffffffffffffffffff168152505084848151811061132257611321611b23565b5b6020026020010181905250828061133890611aa6565b9350505b808061134790611aa6565b91505061116a565b506002600088815260200190815260200160002060000160009054906101000a900473ffffffffffffffffffffffffffffffffffffffff1673ffffffffffffffffffffffffffffffffffffffff168173ffffffffffffffffffffffffffffffffffffffff1614156113ed5760046000888152602001908152602001600020600001549450600460008881526020019081526020016000206001015493505b60005b8281101561152157600073ffffffffffffffffffffffffffffffffffffffff1684828151811061142357611422611b23565b5b60200260200101516020015173ffffffffffffffffffffffffffffffffffffffff161461146c5783818151811061145d5761145c611b23565b5b60200260200101516000015196505b83818151811061147f5761147e611b23565b5b60200260200101516020015173ffffffffffffffffffffffffffffffffffffffff166108fc61271088612710896114b69190611c2a565b6114c09190611de1565b6127106114cd9190611d5c565b8a6114d89190611c2a565b6114e29190611de1565b9081150290604051600060405180830381858888f1935050505015801561150d573d6000803e3d6000fd5b50808061151990611aa6565b9150506113f0565b5050505050505050565b6040518060a00160405280600073ffffffffffffffffffffffffffffffffffffffff168152602001600073ffffffffffffffffffffffffffffffffffffffff168152602001600073ffffffffffffffffffffffffffffffffffffffff168152602001600081526020016000151581525090565b604051806060016040528060008152602001600073ffffffffffffffffffffffffffffffffffffffff168152602001600073ffffffffffffffffffffffffffffffffffffffff1681525090565b600080fd5b6000819050919050565b611603816115f0565b811461160e57600080fd5b50565b600081359050611620816115fa565b92915050565b60006020828403121561163c5761163b6115eb565b5b600061164a84828501611611565b91505092915050565b61165c816115f0565b82525050565b60006040820190506116776000830185611653565b6116846020830184611653565b9392505050565b600073ffffffffffffffffffffffffffffffffffffffff82169050919050565b60006116b68261168b565b9050919050565b6116c6816116ab565b82525050565b60006116d78261168b565b9050919050565b6116e7816116cc565b82525050565b60008115159050919050565b611702816116ed565b82525050565b600060a08201905061171d60008301886116bd565b61172a60208301876116bd565b61173760408301866116de565b6117446060830185611653565b61175160808301846116f9565b9695505050505050565b60006020820190506117706000830184611653565b92915050565b61177f816116ab565b811461178a57600080fd5b50565b60008135905061179c81611776565b92915050565b6000602082840312156117b8576117b76115eb565b5b60006117c68482850161178d565b91505092915050565b600081519050919050565b600082825260208201905092915050565b6000819050602082019050919050565b611804816115f0565b82525050565b600061181683836117fb565b60208301905092915050565b6000602082019050919050565b600061183a826117cf565b61184481856117da565b935061184f836117eb565b8060005b83811015611880578151611867888261180a565b975061187283611822565b925050600181019050611853565b5085935050505092915050565b600060208201905081810360008301526118a7818461182f565b905092915050565b60006020820190506118c460008301846116bd565b92915050565b6118d3816116ab565b82525050565b6118e2816116cc565b82525050565b6118f1816116ed565b82525050565b60a08201600082015161190d60008501826118ca565b50602082015161192060208501826118ca565b50604082015161193360408501826118d9565b50606082015161194660608501826117fb565b50608082015161195960808501826118e8565b50505050565b600060a08201905061197460008301846118f7565b92915050565b60008060408385031215611991576119906115eb565b5b600061199f8582860161178d565b92505060206119b085828601611611565b9150509250929050565b600080604083850312156119d1576119d06115eb565b5b60006119df85828601611611565b92505060206119f08582860161178d565b9150509250929050565b600082825260208201905092915050565b7f496e76616c69642042657420416d6f756e740000000000000000000000000000600082015250565b6000611a416012836119fa565b9150611a4c82611a0b565b602082019050919050565b60006020820190508181036000830152611a7081611a34565b9050919050565b7f4e487b7100000000000000000000000000000000000000000000000000000000600052601160045260246000fd5b6000611ab1826115f0565b91507fffffffffffffffffffffffffffffffffffffffffffffffffffffffffffffffff821415611ae457611ae3611a77565b5b600182019050919050565b6000611afa826115f0565b9150611b05836115f0565b925082821015611b1857611b17611a77565b5b828203905092915050565b7f4e487b7100000000000000000000000000000000000000000000000000000000600052603260045260246000fd5b7f47616d6520646f6573206e6f7420657869737400000000000000000000000000600082015250565b6000611b886013836119fa565b9150611b9382611b52565b602082019050919050565b60006020820190508181036000830152611bb781611b7b565b9050919050565b7f57696e6e6572206e6f742056616c696400000000000000000000000000000000600082015250565b6000611bf46010836119fa565b9150611bff82611bbe565b602082019050919050565b60006020820190508181036000830152611c2381611be7565b9050919050565b6000611c35826115f0565b9150611c40836115f0565b9250817fffffffffffffffffffffffffffffffffffffffffffffffffffffffffffffffff0483118215151615611c7957611c78611a77565b5b828202905092915050565b7f47616d6520646f6573206e6f7420657869737473000000000000000000000000600082015250565b6000611cba6014836119fa565b9150611cc582611c84565b602082019050919050565b60006020820190508181036000830152611ce981611cad565b9050919050565b7f496e76616c696420426574000000000000000000000000000000000000000000600082015250565b6000611d26600b836119fa565b9150611d3182611cf0565b602082019050919050565b60006020820190508181036000830152611d5581611d19565b9050919050565b6000611d67826115f0565b9150611d72836115f0565b9250827fffffffffffffffffffffffffffffffffffffffffffffffffffffffffffffffff03821115611da757611da6611a77565b5b828201905092915050565b7f4e487b7100000000000000000000000000000000000000000000000000000000600052601260045260246000fd5b6000611dec826115f0565b9150611df7836115f0565b925082611e0757611e06611db2565b5b82820490509291505056fea2646970667358221220dac46ecad047a7eeef0d131d65c8c5ef1c69dd1e11a6be8b8f7028c0f5036ac664736f6c634300080a0033",
  "immutableReferences": {},
  "source": "pragma solidity >=0.4.22 <0.9.0;\n\ncontract Chess {\n    uint256 public gameID;\n    address public owner;\n\n    struct Game {\n        address player1;\n        address player2;\n        address payable winner;\n        uint256 amountBet;\n        bool finished;\n    }\n\n    struct Better {\n        uint256 amountBet;\n        address payable betterAddress;\n        address betSide;\n    }\n\n    struct Bet {\n        uint256 amountPlayer1;\n        uint256 amountPlayer2;\n        Better[] betters;\n    }\n\n    mapping(uint256 => Game) public GameInfo;\n    mapping(address => uint256[]) public GamesPlayed;\n    mapping(uint256 => Bet) public BetInfo;\n\n    constructor() {\n        owner = msg.sender;\n        gameID = 1568;\n    }\n\n    function newGame() public payable {\n        require(msg.value > 0, \"Invalid Bet Amount\");\n        GameInfo[gameID].player1 = msg.sender;\n        GameInfo[gameID].amountBet = msg.value;\n        GameInfo[gameID].finished = false;\n        uint256 game = gameID;\n        GamesPlayed[msg.sender].push(game);\n        gameID++;\n    }\n\n    function getGameID(address player) public view returns (uint256) {\n        return GamesPlayed[player][GamesPlayed[player].length - 1];\n    }\n\n    function getStake(uint256 game) public view returns (uint256) {\n        return GameInfo[game].amountBet;\n    }\n\n    function joinGame(uint256 game) public payable {\n        require(GameInfo[game].amountBet != 0, \"Game does not exist\");\n        GamesPlayed[msg.sender].push(game);\n        GameInfo[game].player2 = msg.sender;\n    }\n\n    function declareWinner(uint256 game, address winner) public {\n        require(!GameInfo[game].finished);\n        require(GameInfo[game].amountBet != 0, \"Game does not exist\");\n        require(GameInfo[game].winner == address(0));\n        require(msg.sender == owner);\n        require(\n            winner == GameInfo[game].player1 ||\n                winner == GameInfo[game].player2,\n            \"Winner not Valid\"\n        );\n        GameInfo[game].winner = payable(winner);\n        GameInfo[game].winner.transfer(2 * (GameInfo[game].amountBet));\n        settleBet(game);\n        GameInfo[game].finished = true;\n    }\n\n    function getGames(address user) public view returns (uint256[] memory) {\n        uint256[] memory games = GamesPlayed[user];\n        return games;\n    }\n\n    function getLatestGameId() public view returns (uint256) {\n        return gameID;\n    }\n\n    function getGame(uint256 game) public view returns (Game memory) {\n        Game memory requestedGame;\n        requestedGame = GameInfo[game];\n        return requestedGame;\n    }\n\n    function checkPlayer(address player, uint256 game)\n        private\n        view\n        returns (bool)\n    {\n        for (uint256 i = 0; i < BetInfo[game].betters.length; i++) {\n            if (BetInfo[game].betters[i].betterAddress == player) return false;\n        }\n        return true;\n    }\n\n    function bet(address side, uint256 game) public payable {\n        require(GameInfo[game].amountBet != 0, \"Game does not exists\");\n        require(\n            side == GameInfo[game].player1 || side == GameInfo[game].player2,\n            \"Invalid Bet\"\n        );\n        //require(checkPlayer(msg.sender, game), \"Bet already Made\");\n        if (side == GameInfo[game].player1) {\n            BetInfo[game].amountPlayer1 += msg.value;\n        } else {\n            BetInfo[game].amountPlayer2 += msg.value;\n        }\n        Better memory user;\n        user.amountBet = msg.value;\n        user.betterAddress = payable(msg.sender);\n        user.betSide = side;\n\n        BetInfo[game].betters.push(user);\n    }\n\n    function settleBet(uint256 game) private {\n        uint256 transfer;\n        uint256 winAmount;\n        uint256 loseAmount;\n        Better[] memory winners;\n        uint256 count = 0;\n        address winnerSide = GameInfo[game].winner;\n        for (uint256 i = 0; i < BetInfo[game].betters.length; i++) {\n            if (BetInfo[game].betters[i].betSide == winnerSide) {\n                winners[count] = BetInfo[game].betters[i];\n                count++;\n            }\n        }\n        if (winnerSide == GameInfo[game].player1) {\n            winAmount = BetInfo[game].amountPlayer1;\n            loseAmount = BetInfo[game].amountPlayer2;\n        }\n        for (uint256 j = 0; j < count; j++) {\n            if (winners[j].betterAddress != address(0))\n                transfer = winners[j].amountBet;\n            winners[j].betterAddress.transfer(\n                (transfer * (10000 + ((loseAmount * 10000) / winAmount))) /\n                    10000\n            );\n        }\n    }\n}\n",
  "sourcePath": "/home/mayank/crypto-chess/contracts/Chess.sol",
  "compiler": {
    "name": "solc",
    "version": "0.8.10+commit.fc410830.Emscripten.clang"
  },
  "schemaVersion": "3.4.3",
  "updatedAt": "2021-12-12T16:14:00.083Z",
  "networkType": "ethereum",
  "devdoc": {
    "kind": "dev",
    "methods": {},
    "version": 1
  },
  "userdoc": {
    "kind": "user",
    "methods": {},
    "version": 1
  }
}